S072000073616D706C652D617070732F626F6F746C6F616465722D73746F726167652D696E7465726E616C2D626C652F65667233326267317032333266323536676D34382F626F6F746C6F616465722F52656C656173652F4578652F626F6F746C6F616465722D636F6D62696E65642E73333741
S31500000000900400201D060000650600006906000039
S315000000106D06000071060000750600000000000075
S315000000200000000000000000340600007906000011
S315000000307D06000000000000810600008506000025
S3150000004010B57C497C4A01E021B1491E1369DC07E1
S31500000050FAD411B96FF0020010BD50600120106093
S315000000601169480702D54FF0FF3010BD002010BDC2
S315000000702DE9F041044610460B460022002B41D0E4
S315000000806FF001056FF002086A496B4FA8B99446F4
S315000000909C4537D254F8040BF8600CF1010C08208B
S315000000A03860084601E080B3401E3E69F607FAD480
S315000000B058B338698007EBD523E0EFF3108072B6AA
S315000000C094460FE03E6906F01906102E08BF3E6002
S315000000D03E693607F6D554F8046BFE600CF1010C48
S315000000E010263E609C45F3D318B962B601E021B1F3
S315000000F0491E3869C307FAD401B9424638698107EF
S3150000010000D52A461046BDE8F0814246FAE72DE9B9
S31500000110F24F474CA16B834600208DB205B10125F5
S3150000012041F67131A1634FEA9208276847F001074B
S3150000013027608146DDF800A01F4613E0C6F30A06D5
S31500000140C6F50066B608A8EB0900B04238BF0646F9
S315000001503A4631465046FFF78BFF01000CD1B144B9
S315000001600AEB860AC14507D20BEB89063046FFF734
S3150000017067FF0100E2D00FE00099DBF800200B6872
S315000001809A4209D05846FFF75BFF010004D1009858
S315000001903A460121FFF76CFF2168490849002160B2
S315000001A0EDB20DB10021A163BDE8F28F30B5204B51
S315000001B020490246986B80B200B1012041F67134A5
S315000001C09C631D6845F001051D609A6001225A6016
S315000001D05C69620704D500F021F84FF0FF3030BDAE
S315000001E002225A605A69D40710D5002918BF491E41
S315000001F0F8D10BE00029196804D100F010F86FF06F
S31500000200020030BD00F00BF8002030BD5A6994079B
S31500000210F0D500F003F86FF0010030BD1968490809
S315000002204900196008B100209863704700236EE703
S3150000023008000E40809698000C000E4010B53B4C0E
S3150000024041F67131A1632268520852002260FFF71D
S31500000250ADFF226852080146520022600020A063CA
S31500000260481E8041C00F10BD38B58308800705D5EC
S315000002704FF6FF7242EA0142009204E041F07F41EC
S3150000028041F47F01009141F67130284CA0630422AD
S3150000029025686D086D00256069469800FFF7C6FF62
S315000002A022685208520022600021A16332BD2DE966
S315000002B0F04105468846144605F0010104F00100A8
S315000002C0014330D16CB3AA0707D538F8021B28467C
S315000002D0FFF7CAFF38BBAD1CA41E042C1AD3134E5D
S315000002E041F67130B063A7083168490849003160AA
S315000002F0BF003A4641462846FFF798FF316849084D
S315000003004900316000227908B26308EB41087D1983
S31500000310E41B40B92CB1B8F800102846FFF7A4FF3B
S3150000032008B9012000E00020BDE8F08108000E4079
S31500000330F8B5282001680869CD68846AAC4225D3DF
S3150000034005F560518C4221D2641B0419264E2168A2
S31500000350B1421BD1E168254F4FF0FF3200F050F853
S31500000360B84213D100F044F80ED20268B2420BD163
S315000003708168A268914207D3C1684FF0FF322846D0
S3150000038000F03EF8B84201D00120F2BD0020F2BDD7
S31500000390F8B5282000680569C468AE6A361BAE1930
S315000003A0274604E03846FFF749FF07F50067F2687D
S315000003B010198742F6D329462046FFF778FF90B1F9
S315000003C000F016F80CD2026807498A4208D1C168C3
S315000003D04FF0FF32204600F013F80449884201D05E
S315000003E00020F2BD0120F2BD07B0CD5EE320BBDEEA
S315000003F040F628000068A0F50061B1F5605F70471F
S3150000040030B50A4B1C6844F020041C600125084BDB
S315000004101D609A605D6002E010F8014B9C610A461F
S31500000420511E002AF8D1D86930BD00BFB0400E4039
S3150000043000C0014080B51848184A01681160FFF7EE
S31500000440A7FF0028FBD040F2022000F02DF8002084
S3150000045002BD10B5124C0020206000F045F811498D
S315000004600A68B2F5803F0AD040F20921884218BFD7
S31500000470B0F5007F03D1FFF75BFF00B110BD4FF46D
S3150000048000602060016881F3088881F309884FF4D1
S31500000490006148688047FEE7880000208C00002045
S315000004A008ED00E004500E404FF0005108804FF276
S315000004B00F0048800948016821F4E06141F4806139
S315000004C00160BFF34F8F064906480A6802F4E062EE
S315000004D002430A60BFF34F8F00BFFDE700500E4096
S315000004E00CED00E00400FA054FF000514FF20F0248
S315000004F04888904201D108887047002804BF0888C0
S31500000500012802D140F2022070474FF40070704774
S315000005100C490D4808600D48026842F470020260FA
S315000005200B48416941F4005141610268920892000A
S315000005300260416B490849004163016A21F080511C
S315000005400162704708ED00E00000000088ED00E061
S3150000055040300E4030B450F8041B79B1026843684D
S3150000056002440830DC0744BFA9F10104E31852F83D
S31500000570045B43F8045B091FF9D1ECE730BC704714
S3150000058010B5074979441831064C7C44163404E00A
S315000005900A68081D114488470146A142F8D110BDDA
S315000005A02C0000003C0000004EF68851CEF20001FF
S315000005B0086840F470000860BFF34F8FBFF36F8F79
S315000005C04FF00070E1EE100A7047000089FFFFFF50
S315000005D010000000740000008000002000000000F1
S315000005E00120C046002801D0FFF7CAFFAFF3008004
S315000005F00020AFF30080FFF71DFF00F000F800F0C9
S3150000060001B800000746384600F002F8FBE7000094
S315000006102021090326311820ABBEF9E7024880479E
S3150000062002488047024800471105000053040000B5
S3150000063059060000AD1007B00100000000020801D5
S31500000640000800000080000000F049020080000061
S31500000650C0EA2101C0EA2101AFF30080FFF7A4FF41
S31500000660FFF7BEFFFFF7FEBFFFF7FEBFFFF7FEBFB8
S31500000670FFF7FEBFFFF7FEBFFFF7FEBFFFF7FEBFA8
S30D00000680FFF7FEBFFFF7FEBF06
S3150000080080100020C53400002B1E00006509000082
S31500000810331E0000D72C00003B2D00000000000016
S315000008200000000000000000400800006F2D0000DE
S31500000830F32E0000740800001B2F0000A7310000F3
S3150000084007B0CD5E0100000000000801EC2C00009E
S315000008500040000000000400F0000100610B0000F1
S31500000860650B0000BD0C0000BF1D0000F11D00005F
S31500000870CC08000013B779FAC925DDB7ADF3CFE090
S31500000880F1B614B80101000000000000E82C0000D9
S315000008904000000000000801000000000000000009
S315000008A00000000000000000000000000000000042
S315000008B000000000454652333200000001000000EF
S315000008C0010000000018020000D80100000100002D
S315000008D0B10E0000070F0000350F0000530F000097
S315000008E0990F000037330000253200000534000060
S315000008F0B90F0000E10F00003D100000E90D0000F7
S31500000900F30D0000110E0000470E000030B50A4B33
S315000009101C6844F020041C600125084B1D609A6089
S315000009205D6002E010F8014B9C610A46511E002AE8
S31500000930F8D1D86930BD00BFB0400E4000C00140BC
S3150000094040F628000168086970472820044A0068B4
S315000009500168914201D1006970470020704700008C
S31500000960AD1007B04FF4017000F0AAB838B544498D
S31500000970444A012008606846146800F0D7F8240E3F
S315000009808F2C10DA4048414C016841F004020260A5
S315000009904FF05013002230255543521C6351062A4E
S315000009A0F9D3016000E006DC39480168C909C901CC
S315000009B041F0200101609DF80100012804D135486D
S315000009C0016841F00401016000203349086000F02D
S315000009D0C7F800F070F800F0C9F848B940F20120F5
S315000009E000F06EF84FF4017000F06AF8002032BD96
S315000009F02A4901E00099491E009100990129F9DA76
S31500000A0040F205429042EDD140F20320ECE70000AF
S31500000A1038B523480168012401254A050CD500F0A4
S31500000A2071F840F20221401A04D0C01E02D0C01E46
S31500000A30012801D80024002544F20400016811F1C0
S31500000A40010F06D1BDE832404FF4027000F02CB819
S31500000A5031BD2DB14FF4804000F030F90400F1D0E3
S31500000A60002CF5D00F494FF480400860024610462E
S31500000A70016881F3088881F3098840688746FEE7A4
S31500000A8044000E40FC81E00FB0400E4000A0004044
S31500000A902C400E4064310E40B40AC64300350C00AB
S31500000AA004500E4008ED00E04FF0005108804FF270
S31500000AB00F00488070470F494CF23C300880704761
S31500000AC04FF0005108804FF20F0048800A48016835
S31500000AD021F4E06141F480610160BFF34F8F074963
S31500000AE007480A6802F4E06202430A60BFF34F8FC8
S31500000AF000BFFDE70200002000500E400CED00E0B4
S31500000B000400FA054FF000514FF20F024888904258
S31500000B1001D108887047002804BF0888012802D13F
S31500000B2040F2022070474FF40070704710B50B4A30
S31500000B30516813688C0004F03C04C3F381110C4324
S31500000B408470116801F03F0141709368D16803F029
S31500000B50F003C1F303110B43037010BDE0FF0FE078
S31500000B6000F040B900F094B90020704718B5DFB026
S31500000B704FF4BE726946002000F01EFA0021684656
S31500000B8000F02EFA40F201218842F7D040F203220B
S31500000B90904240F2054424D19DF8000000F0030085
S31500000BA002281ED09DF80000810710D540F62800C7
S31500000BB00268019993688B4209D25B9800F0A4FA07
S31500000BC078B1FFF7C2FE099900F0EEF809E09DF84A
S31500000BD00000C10705D503995B9800F0B9FA00B18A
S31500000BE00024204660B010BDF8B50446E00A0D4664
S31500000BF01646B4EBC02004BF204600F0D3FA04F535
S31500000C000067FF0AFF0204E0384600F0CBFA07F55A
S31500000C10006730198742F7D3324629462046BDE899
S31500000C20F84000F0F8BA38B540F628031B681C698E
S31500000C30A04222BF5B691518AB4202D3BDE838401B
S31500000C40D2E731BDF8B5044628200D4601685D4B54
S31500000C5016460A689A4218D1FFF777FE2718F01948
S31500000C605949884211D254B9FFF76FFE40F6280160
S31500000C7009684A6990423CBF086900F093FA324617
S31500000C8029463846BDE8F840AEE7F1BD7FB50446D3
S31500000C904FEA0D004EA1102200F00EFB0020464246
S31500000CA00DEB0605225CE97B914205D1401C10281C
S31500000CB0F5D3012004B070BD0020FBE758B504460B
S31500000CC047F6014322686068616B02F160429A420E
S31500000CD02CD240F6280213681A69904226D33A4B62
S31500000CE0984223D2403291420E4601D3994205D30F
S31500000CF00020C046401E8041C00F52BD0020C046A5
S31500000D00B0B93046FFF7C2FF00281CBF7069002843
S31500000D1012D002280CD1B069001D011B4FF0FF3222
S31500000D202046FFF7F3FD2949884205D0002052BD31
S31500000D302046BDE8524001E0012052BD38B50546C7
S31500000D409CB06C6B2046FFF7A1FF18B160690128C3
S31500000D500BD1A46940F6280001680A69944228BFAD
S31500000D60AC4202D31848844201D300201AE001A8FD
S31500000D7000F0CDFA621B294601A800F0D2FA01A8BC
S31500000D8000F0D1FA00F0D4FA054600F0CFFA034697
S31500000D90009504F12002214601A800F0D3FA401E76
S31500000DA08041C00F1DB030BD80B54FF0FF32FFF758
S31500000DB0ADFD064B984204BF40F20920FFF780FEC6
S31500000DC0002002BDAD1007B001000400E320BBDE29
S31500000DD0B814B6F1E0CFF3ADB7DD25C9FA79B7138C
S31500000DE02CA07047002070472748006800F00100DB
S31500000DF0704710B50B461118244CA14205D2014686
S31500000E00184600F049FA002010BD40F2024010BD1D
S31500000E1038B513181D4DAB4240F202440BD20023E5
S31500000E2000E01B1D934208D21D5815F1010FF8D0A2
S31500000E3040F2034032BD204632BD00F0ECF90028F6
S31500000E40F9D0002032BD70B505460C46600501D1CB
S31500000E50690502D040F2044070BD60190B49884212
S31500000E6040F2024603D300E008B9304670BD28467A
S31500000E7000F098F9B4F5006405F50065F4D1002892
S31500000E80F3D0002070BD00001C000E4001000400DD
S31500000E90002070470102030028000000280000001F
S31500000EA00008000000000400B40800000200000072
S31500000EB010B504000CD04FF48030206000213D486E
S31500000EC06160027822724068E060FFF789FF206166
S31500000ED010BD78B5044604F5B6760D46A1B0B168E6
S31500000EE03068802301AA00F025F80095802301AA26
S31500000EF0214604F1280000F0CFFBF060B068803096
S31500000F00B06022B070BD0246002940F2014000D117
S31500000F10704710B5274B5C68A24203D300220A60D3
S31500000F204A6010BD03EBC20082680A60C068486070
S31500000F30002010BD38B500F021F800D326E000F0FF
S31500000F4017F800D225E09B68C018BDE83840FFF7C7
S31500000F5050BF38B500F012F800D317E000F008F8DB
S31500000F6000D216E09B68C018BDE83840FFF750BFB6
S31500000F7003EBC4031518DC68AC4270470446084608
S31500000F8011461A460B4B5D68AC42704740F2014071
S31500000F9032BD40F2024032BD06494A68904202D351
S31500000FA040F20140704701EBC000C1688068FFF75E
S31500000FB04ABF0000BC0800003EB504460D46114677
S31500000FC0284600F0FCFE50B969462046FFF79BFF15
S31500000FD028B905F5B67004600199416000203EBD50
S31500000FE038B584B004460D466846102100F01EFF51
S31500000FF0029504F5B875A86888B9686829688842B2
S315000010000DD269462046FFF764FFA86800281CBF7A
S3150000101041F2070188420BD140F2012008E0A07896
S3150000102000281DBFE078002840F2032040F202208D
S3150000103005B030BD0120187070470000F0B585B0CE
S3150000104004460D46164600278DF800700DF1040083
S3150000105048A1102200F030F9CDF804D037601C21E9
S31500001060284600F0E3FE04F5B8779DF8000080B945
S3150000107094F86E0011280CD0B86850B978683968B1
S31500001080884206D201A92046FFF723FFEDE705B007
S31500001090F0BD2078810744BF606830602178C807BA
S315000010A005D51C2204F10801284600F005F99DF833
S315000010B00010002905BF20780028002040F20640D5
S315000010C0E5E770B504460D46202304F5807204F169
S315000010D0B80104F1280000F0A3FA04F5B876B06868
S315000010E050B970683168884206D229462046FFF713
S315000010F0F0FEF4E7002070BDA07800281CBFE07861
S315000011000028F7D0012070BD18B540F62802E3B0DC
S3150000111013689C688C4202D200F012F808B10020D5
S3150000112007E0022000F007F816A100F0C5F800F06D
S315000011300BF864B010BD8DF8110010226846704798
S315000011404FF4BE7204A937E7694604A8B9E7000060
S3150000115000B5E3B0FFF7F4FF08B1002007E0012077
S31500001160FFF7E9FF0BA100F0A7F8FFF7EDFF63B06B
S3150000117000BD000000000000351000003510000022
S315000011803510000000000000000000000000000014
S31500001190450C000000000000270C000000000000C5
S315000011A00000000010B53B4C41F67131A163226886
S315000011B052085200226000F0F3FE226852080146EF
S315000011C0520022600020A063481E8041C00F10BD5F
S315000011D038B58308800705D54FF6FF7242EA01420B
S315000011E0009204E041F07F4141F47F01009141F615
S315000011F07130284CA063042225686D086D002560B7
S315000012006946980000F00CFF2268520852002260DE
S315000012100021A16332BD2DE9F041054688461446FA
S3150000122005F0010104F00100014330D16CB3AA07B7
S3150000123007D538F8021B2846FFF7CAFF38BBAD1C96
S31500001240A41E042C1AD3134E41F67130B063A708BE
S315000012503168490849003160BF003A464146284690
S3150000126000F0DEFE31684908490031600022790845
S31500001270B26308EB41087D19E41B40B92CB1B8F8FC
S3150000128000102846FFF7A4FF08B9012000E000205F
S31500001290BDE8F08108000E4062B38B0708D0521EED
S315000012A011F8013B00F8013B00F024808B07F6D1D2
S315000012B0830740F0208000BF103A07D330B4B1E86E
S315000012C03810103AA0E83810F9D230BC530724BFC2
S315000012D0B1E80810A0E8081044BF51F8043B40F8F4
S315000012E0043BD20724BF31F8022B20F8022B44BF5F
S315000012F00B7803707047083A07D3B1E80810083A2C
S3150000130040F8043B40F804CBF7D25307E4E710B5A6
S31500001310044600F049FF2046BDE81040002100F0D9
S3150000132073BF00F073BF014600F071BF02487047FB
S3150000133002487047024870474A43E00F6A43E00F8D
S315000013408642E00F2DE9F84106000D4618BF002D34
S31500001350A1B01446984600D014B940F2016020E0CE
S31500001360289F1148012100F0B9FF402111A800F083
S315000013705DFD414611A801F0C4FA394619A801F0ED
S31500001380C0FA294601A801F0BCFA214609A801F0D5
S31500001390B8FA01A8009011AB20223146034801F0AB
S315000013A0BFFA22B0BDE8F08100150A0000000F4028
S315000013B02DE9F8431E467368002B4ED00C4614F0F8
S315000013C0030118BF41F2020048D115460746FFF750
S315000013D0B7FA396E001D6A18824221D300F118034C
S315000013E099421DD28C46844538BF844605EB0108D8
S315000013F000F11802904588BF9046ACEB0101ACEBBA
S31500001400000004EB0109A8EB0C08384442464946A3
S315000014106830FFF741FFFF224146484601F0F6FBE0
S31500001420FFF793FA396E001D884222BF6A18031D22
S315000014309A4209D3411A601807F1800102680A60CE
S315000014400421FF2201F0E2FB21463368386E7468FE
S315000014502A46A047386E2D183D660020BDE8F28367
S3150000146070B54B688C689C4206D200F140021B1B8B
S3150000147014781B19412B01D3002070BD53781478C2
S315000014800D68E4188B68EE5C04F03F0406558C6822
S31500001490641C8C6013785B1C13708C684B689C42D0
S315000014A0ECD3012070BD90F840004A688968101896
S315000014B0401A70472DE9F0410C4617461D468046F6
S315000014C0FFF7F1FFA84208F1400606D22146404642
S315000014D0FFF7C6FF10B300204DE000210CE0707846
S315000014E018F800207A54491C737830785B1C03F096
S315000014F03F03421E73703270307808B1A942EED3B2
S31500001500A0686268904238BFA9420CD22368185C72
S315000015107854491CA268521CA260F1E71220B071EF
S3150000152041F2020027E0A942F8D1069CB26C294696
S315000015303846FFF7EBF9B06424B1F0682A4639461D
S31500001540FFF7EFFE079838B1F07878B1B0682B4610
S315000015503A46394601F0B0FBF07838B1F069B16926
S315000015602818F061884224BF0020F07070692D1899
S31500001570756141F20300BDE8F081F8B584B0144608
S315000015800026054601960096082302AAFFF792FF59
S3150000159041F20306B0423CD195F8430005F14807F5
S315000015A038B100F038F83868082302AA02A901F019
S315000015B083FB9DF80A209DF80B009DF80910120484
S315000015C042EA00629DF8080042EA012202432260D4
S315000015D09DF80E009DF80F10000440EA01609DF88A
S315000015E00D1040EA01209DF80C100843606095F844
S315000015F0430048B9DFF860178A421CBFDFF85C0772
S31500001600824201D000F007F86068B8600021F960F6
S31500001610304605B0F0BD7868082202A9FFF781BE02
S31500001620F8B5064606F140070020B8717870F870E4
S3150000163038710D4600214FF0FF303970797103F093
S315000016402003B864396279621446BB70FF22182100
S3150000165006F1680001F0DAFAFF22042106F18000A3
S3150000166001F0D4FAFF22042106F1840001F0CEFA3B
S31500001670BD60FC600020C04600B11DB10020C04620
S3150000168018B114B941F20B00F2BD14B1F868FFF7B6
S315000016903EFE0020F2BD00002DE9FB4F82460021F0
S315000016A0002300249AB005A880E81A000592099143
S315000016B00AF148061C9A269D06920AF1420710E096
S315000016C000F072FB0899884233D10498B06000217B
S315000016D0F1600398DFF88816884240F042810222C2
S315000016E03A7107981C99884280F0CF8241F2030232
S315000016F008920DF1280839791229F2D8DFE811F09D
S3150000170014001500C902310108030A03E30253015C
S315000017100A034E010A034E012002C2020D0396027D
S315000017209902D301C202DCE7CAE700F03DFB089943
S31500001730884240F0AB82B87820B10398DFF81C16D7
S31500001740884246E03A78D1074DD5787800284AD1C4
S315000017500398DFF80C1688421CBFDFF8081688428B
S3150000176025D0DFF8041688421FBFDFF8001688422E
S31500001770DFF8FC1588421AD0DFF8F815884222D027
S31500001780DFF8D415884265D0DFF8EC15884213D00F
S31500001790DFF8E81588420DD0DFF8C015884215D06D
S315000017A0DFF8DC1588421CBFDFF8D815884200F048
S315000017B0D88010E00E2293E70F2038710020B16820
S315000017C0316170618DE71221397166E00020C046F3
S315000017D000283DD138E01220387103A80020C04609
S315000017E000285AD0A6E20398DFF87C1588421AD062
S315000017F0DFF87815884214D0DFF87415884215D0C2
S31500001800DFF85415884221D0DFF85015884214D0ED
S31500001810DFF86C1588420ED0DFF86815884208D0CC
S315000018201AE004225CE7062038715AE7072139716D
S3150000183057E70920F8E70B21F9E70020C046002802
S3150000184004BF7878002803D10C21F0E778780028C7
S3150000185040F087801021EAE703A80020C046A8B11F
S31500001860039870641121397103980020C0460990CD
S3150000187038788106DCD5099800281CBF4168002904
S31500001880D6D0504688470028D2D053E21221787825
S31500001890397110B141F20400F8E141F20800F5E1B6
S315000018A098F8050098F8041041EA00210291C9074A
S315000018B004D5387840F00100387002E00020C046B8
S315000018C040B90020C046002800F0E5810298C10515
S315000018D000F1E1811220387141F20A00D6E10520BB
S315000018E0F978387141F00101F9700020F061F06873
S315000018F0082880F01B8201210191009100F059FA1D
S3150000190008998842EAD1207840F00200207098F8C1
S31500001910020098F803109DF82820000440EA0160B0
S3150000192098F8011040EA0120104360600021B06879
S3150000193008386062886ADFF8501402688A42CED19D
S3150000194098F8061098F8072098F80430C06809043B
S3150000195041EA026198F8052041EA022119438142D1
S31500001960BDD012213971E5E1012000F015FA089980
S315000019708842B3D198F8021098F803009DF8282001
S31500001980090441EA006198F8010041EA0021114387
S315000019900291B068052824BF0298B061F068042857
S315000019A0E2D30A2143E70020F06108213FE72B68D4
S315000019B0F06942460AA9E047F0694044F061B06820
S315000019C0F168814280F0AF81A0EB0108B8F1040F05
S315000019D005A9504608D3FFF766FD042808D205A9D5
S315000019E05046FFF73DFD50E1FFF75DFD4045F6D35C
S315000019F0B8F1410F28BF4FF0400800F0C9F9404543
S31500001A0002D200F0C5F98046B8F1040F24BF4FEAB0
S31500001A1098004FEA8008012001900090434600F0AC
S31500001A20BEF90899884240F031813879082804D1F6
S31500001A30D5F808C0BCF1000FB9D1B8F1040FC8F150
S31500001A40040B06D20AA8FF225946404401F0DEF8EC
S31500001A50D84438790A2806D12B4642460AA9504668
S31500001A60FFF7A6FCABE70528A9D199F80100810785
S31500001A70A5D5E8680028A2D0F06905280ED208EBA3
S31500001A80000107290AD30AA9091D081A0AF18402C6
S31500001A9001681160FF22042101F0B8F82B68F06993
S31500001AA0D5F80CC085E73978880640F14181706C1D
S31500001AB00020C0460028099040F03A813AE14FF0F4
S31500001AC0010900F065F9484589D3B068F168A0EBD3
S31500001AD00109B9F1410F28BF4FF0400900F058F94C
S31500001AE0814502D300F054F981460120019000900F
S31500001AF04B4600F054F9089988422FD13878810670
S31500001B000DD5002C1CBFD4F808C0BCF1000FD5D0F1
S31500001B102B464A460AA95046E04700281ED1F068DF
S31500001B20B168884280F0098138788106C7D5002CD3
S31500001B301CBF21690029C2D0504688478146C0E7AC
S31500001B40002000F029F90899884207D1306C8F49A6
S31500001B50884204D012223A7141F2050096E0002034
S31500001B60C04618B91B990120C87003E01B99C878B4
S31500001B7000283FD0F87810F0030F1CBFEC68002C4B
S31500001B8005D02B6804220AF184010420A047B0691D
S31500001B9000281CBF686800282CD04FF0FF31029146
S31500001BA00AF180040422214602A801F095F840B10A
S31500001BB0FEF7CBFE28B121462B686C680422001D77
S31500001BC0A04704220AF1680102A801F085F888B14D
S31500001BD0FEF7B6FE2B686C6814220AF16C01083019
S31500001BE0A047FEF7ADFE2B686C6804220AF1680177
S31500001BF0001DA0471B99012088700D20387144E014
S31500001C000020012101900091102300F0C8F80899E6
S31500001C1088423BD1FFF78EFB802100900191012382
S31500001C2030680BAA022101F024F878E001207870D0
S31500001C3026E0B87820BB002101910090402300F0F7
S31500001C40AEF80899884221D17068FFF76CFBFFF760
S31500001C506FFB0446FFF76AFB00940346706812AAFE
S31500001C600AA9FFF76FFB38B11B990020C870122034
S31500001C70387141F2060009E01B990120C870B8705E
S31500001C800121D4E541F2070000E000201DB0BDE8C7
S31500001C90F08FDDF86C90F068082844D2002101200E
S31500001CA00191009000F085F808998842EED198F8E5
S31500001CB003000006B0F1407F3FF4F2AD1220387108
S31500001CC041F20900E2E7DDF86C90B368F0689842EB
S31500001CD029D201210191009100F061F8089988420A
S31500001CE0D4D11C220AA909F10800FFF7E5FA99F8F0
S31500001CF0000040F0010089F8000009F10800012009
S31500001D00C0460028E1D11220387141F20C00BDE72F
S31500001D101B9CECE5DDF86C9051E6DDF86C90F06804
S31500001D201028FFF46DAFCDF86C90A9E71B94D8E4AA
S31500001D30099CF4E641F20100A8E709943878810687
S31500001D409ED5002C1CBFE268002A99D02946504631
S31500001D50904700289AD193E7F70A0AF7FC0404FC97
S31500001D60EB17A603EB17A65EF40A0AF4F50909F5C4
S31500001D70F60808F6F70909F7F90707F9FA0606FA61
S31500001D80FD0303FDFE0101FEAD1007B0E320BBDE3F
S31500001D9005A95046FFF787BB0190009004230AAAC5
S31500001DA005A95046FFF786BB03AA05A95046FFF7CB
S31500001DB0E4BB08230AAA05A95046FFF77BBB10B56A
S31500001DC0B1F5BE7F044602D240F2052010BD4FF4A5
S31500001DD0BE7100F02BF80020607004F5807204F1EB
S31500001DE0B80104F12800BDE810400023FFF718BC35
S31500001DF01CB500910446214604F12800FFF74CFC6F
S31500001E0000281CBF41F207018842C4F878010BD1B3
S31500001E10A07838B1E07810B140F2032016BD40F248
S31500001E20022016BD40F2012016BDFEE7002200F09A
S31500001E3085BFFEE710B57C497C4A01E021B1491E09
S31500001E401369DC07FAD411B96FF0020010BD5060B7
S31500001E50012010601169480702D54FF0FF3010BD10
S31500001E60002010BD2DE9F041044610460B46002225
S31500001E70002B41D06FF001056FF002086A496B4FE5
S31500001E80A8B994469C4537D254F8040BF8600CF177
S31500001E90010C08203860084601E080B3401E3E6908
S31500001EA0F607FAD458B338698007EBD523E0EFF389
S31500001EB0108072B694460FE03E6906F01906102EA1
S31500001EC008BF3E603E693607F6D554F8046BFE60DF
S31500001ED00CF1010C10263E609C45F3D318B962B68E
S31500001EE001E021B1491E3869C307FAD401B9424657
S31500001EF03869810700D52A461046BDE8F08142467A
S31500001F00FAE72DE9F24F474CA16B834600208DB2CC
S31500001F1005B1012541F67131A1634FEA92082768A0
S31500001F2047F0010727608146DDF800A01F4613E051
S31500001F30C6F30A06C6F50066B608A8EB0900B04265
S31500001F4038BF06463A4631465046FFF78BFF01003A
S31500001F500CD1B1440AEB860AC14507D20BEB8906C0
S31500001F603046FFF767FF0100E2D00FE00099DBF88B
S31500001F7000200B689A4209D05846FFF75BFF010024
S31500001F8004D100983A460121FFF76CFF2168490801
S31500001F9049002160EDB20DB10021A163BDE8F28FC9
S31500001FA030B5204B20490246986B80B200B1012023
S31500001FB041F671349C631D6845F001051D609A6009
S31500001FC001225A605C69620704D500F021F84FF0DF
S31500001FD0FF3030BD02225A605A69D40710D5002955
S31500001FE018BF491EF8D10BE00029196804D100F08A
S31500001FF010F86FF0020030BD00F00BF8002030BD85
S315000020005A699407F0D500F003F86FF0010030BD6F
S31500002010196849084900196008B10020986370479B
S3150000202000236EE708000E40809698000C000E40D4
S315000020302DE9F84F022883461FD8140055D00B9A75
S31500002040D2F800C0BCF13F0F984618D85068002857
S3150000205018BF5FEA080A13D1BBF1000F04D0BBF129
S31500002060020F07D003D308E00FF2B01A08E00FF210
S31500002070CC1A05E00FF2E41A02E04A4836E0C246FE
S315000020800CF03F06A444A445C6F14005C2F800C0C2
S3150000209002D25068401C506089460A9F8EB1AC42FD
S315000020A00FD32A46B819FFF7F7F8012000904346E8
S315000020B03A465146584600F07AFEC246A944641B89
S315000020C000263F2C0BD9A509009543464A465146A2
S315000020D0584600F06CFE09EB8519A4EB851424B173
S315000020E022464946B819FFF7D7F80020BDE8F28F17
S315000020F02DE9F8430446200086B0884616461F465A
S3150000210003D0022C30D02DD330E01425002100203E
S315000021100DF1080C4242920057F82030D21D01EB17
S31500002120C3010CF8021002A9114457F82020C91E59
S3150000213052098A7057F82020520B4A7057F820200F
S31500002140520D0A7057F82010490F401C0128E1D99A
S315000021503A7802F03F02382A34BFC2F13802C2F19F
S31500002160780205E01C25D1E72025CFE70D4816E0CB
S31500002170DDF8389041A10197009643462046FFF7C7
S3150000218057FF019700964346082202A92046FFF70B
S315000021904FFF2A4641464846FFF77EF8002007B023
S315000021A0BDE8F08380AFFFFF00281CBF6C21FFF75E
S315000021B03DBE704700220029CCBF012100210262EA
S315000021C0426280F86810002070473EB5034603F16E
S315000021D0200493F86800002803F1280514BF0120A5
S315000021E0022001940095FFF723FF3EBD1CB590F831
S315000021F068200091002A14BF0124022400F008F888
S315000022002046FFF775FF16BDD4E70000DDE7EDE7D2
S3150000221000F1200300F128020146704767452301BB
S31500002220EFCDAB8998BADCFE10325476C3D2E1F01A
S31500002230000000000000000000000000C1059ED85C
S31500002240367CD5073070DD17F70E5939FFC00B31D4
S315000022506858151164F98FA7BEFA4FA46A09E66794
S31500002260BB67AE853C6EF372A54FF53A510E527FB1
S315000022709B05688C1F83D9AB5BE0CD1980000000FD
S315000022800000000000000000000000000000000048
S315000022900000000000000000000000000000000038
S315000022A00000000000000000000000000000000028
S315000022B0000000000000000000000000890001EBA3
S315000022C0401101F184410A607047DFF874104A68D2
S315000022D0D30702D40A680242FCD1704770B50C4697
S315000022E00246110A01F00F010020491E0929DFF8F4
S315000022F0545013D8DFE801F005131212071518120F
S315000023001B1FDFF83850C2F3043608B1FFF7DDFFB4
S31500002310224631462846BDE87040CFE770BD1035ED
S31500002320F1E730350120EEE738351020EBE7403590
S315000023304FF48030E7E7DFF81050E4E700400E4046
S3150000234040410E40B0400E4050410E4010B50A6864
S315000023504B688C68C968026003600460016010BD48
S3150000236010B502680368046800680A608C604B60F8
S31500002370C86010BD38B504460D46FFF7E7FF05F106
S3150000238010012046BDE83440E0E738B504460D4666
S31500002390FFF7E6FF05F110012046BDE83440DFE710
S315000023A038B500F00EF804F10C0104E038B500F081
S315000023B008F804F12C011846BDE838402022FEF743
S315000023C06BBF8C240FF2B87560430B462C18704710
S315000023D0082250F8041B21B9521EFAD10020C0B2BF
S315000023E070471000FBD00120F9E7F8B500F068F956
S315000023F00746294604F58470FFF7BCFF314604F50D
S315000024008670FFF7B7FF384600F06CFDDFF8E4068C
S315000024102065012161656069000E00F0010080F011
S315000024200100F2BD2DE9F84F88B004460D469246EC
S315000024301E4600F05AFD834604F5827705F14001F9
S3150000244000F035F904F58678514600F026F904F5D2
S3150000245088790AF120014846FFF78CFF00F022F93F
S3150000246000F048FAA065E16504F5847A00F03DFDC8
S315000024708346294600F01BF905F1200100F010F90A
S3150000248005F140014846FFF775FF00F00BF9DFF84C
S315000024906806DFF86816206561650120A06504F509
S315000024A0807900F022FD834606F140014846FFF799
S315000024B06CFF69465046FFF768FF00F0F3F800F03E
S315000024C014FD834600F0E8F800F0ECF8DFF830067B
S315000024D0DFF83016206561650121DFF82C0600F073
S315000024E0E8F8804600F0E1F800F02FF9DFF81C0666
S315000024F0DFF81C1600F020F8054631465046FFF777
S3150000250044FF284600F0EEFC00F0EFFC0546694665
S315000025103846FFF72FFF284600F0E4FCDFF8F40505
S31500002520DFF8F41500F008F8044600F0B1F800F002
S31500002530C4F809B0BDE8F08F206561650120A0658B
S3150000254000F0D3BC2DE9F84F98B000F0B9F88046FA
S3150000255004F5827700F0A9F800F0F7F8DFF8BC057B
S31500002560DFF8BC152065616504F58078DFF8B405F1
S31500002570FFF7E5FF814608A94046FFF706FF4846F4
S3150000258000F0B0FC00F0B1FC814600F085F848464A
S3150000259000F0A8FCDFF89005DFF89015206561656E
S315000025A04FF48670A06504F5867900F09EFC82469D
S315000025B010A94846FFF7E9FE69464046FFF7E5FEE3
S315000025C0504600F08FFC00F090FC824605F1400179
S315000025D000F06DF8504600F085FCDFF854052065E4
S315000025E00121616504F5847A00F07FFC8346294663
S315000025F000F056F800F056F8DFF83805DFF8381521
S31500002600206561650121DFF8340500F052F8834644
S3150000261069465046FFF7AEFE10A94846FFF7AAFEE8
S3150000262000F040F8DFF81805DFF818152065616539
S31500002630DFF81405FFF783FF8346314604F58870FB
S31500002640FFF7A3FE00F02EF800F04FFC834600F0E3
S315000026502CF805F1400100F023F808A94846FFF7D9
S3150000266089FE00F01FF8DFF8E404DFF8E4142065C3
S31500002670616500F03AFC044606F140014046FFF76A
S3150000268084FE00F005F800F018F819B0BDE8F08FE8
S3150000269006F12001484678E6294640466AE6314674
S315000026A0504667E6584600F01DBC05F12001384645
S315000026B060E6A065E16500F018BC204600F012BC9B
S315000026C004460D46164600F010BC2DE9F0410546BD
S315000026D00E461C46174620212046FFF7A7FB01227F
S315000026E0226000F002FC8046394605F58070FFF74F
S315000026F041FE314605F58270FFF73CFE05F584760E
S3150000270021463046FFF736FE00F01FF8DFF8440496
S3150000271028650BE0DFF84014DFF84004296568659A
S31500002720DFF83C14DFF83C04A965E8656869C10177
S31500002730F0D500F0DAFB054621463046FFF725FEC8
S315000027402846BDE8F04100F0CDBB404600F0CABBCC
S3150000275050F8043B934203D007E050F8042B22B90B
S31500002760091F0129F9DA01207047002070472DE979
S31500002770F04188B004460E460E9F15469846202125
S315000027806846FFF753FB0122009220213846FFF7E7
S315000027904DFB202107F12000FFF748FB202107F120
S315000027A04000FFF743FB8C200FF2D43110FB06F6F6
S315000027B08E192046317A00F09DFB002020602063B0
S315000027C060637668761E002E3ADD00F03EF8F9D595
S315000027D036E0202229463846FEF76EFD202205F116
S315000027E0200107F12000FEF767FD2022694607F168
S315000027F04000FEF761FD22E03A4639462046FFF7E3
S31500002800A1FE00F022F81AD5002220213846FFF753
S315000028109FFF70B10022202107F12000FFF798FFEB
S3150000282038B10022202107F14000FFF791FF002870
S31500002830CFD13B462A4639462046FFF7F3FD761EA2
S31500002840002ED9D508B0BDE8F081301106EBD06076
S31500002850401158F82010A6EB4010C140CA07704737
S315000028602DE9F04104460F461D4616463B468C2090
S315000028700FF20C324343D01890B0017A204600F094
S3150000288039FB002222602263626369463846FFF7FD
S3150000289087FD08AB6A4606F140012046FFF715FFA3
S315000028A000F023FB804608A904F58270FFF762FD5D
S315000028B004F586773146FFF7FAFE06F1200104F5A6
S315000028C08870FFF757FDFFF740FF00F013F8FFF79A
S315000028D0F0FE064605F1200104F58070FFF755FD70
S315000028E029463846FFF751FD304600F0FBFA10B096
S315000028F0BDE8F08189489C492065616501219B48B6
S31500002900704738B50D4604462021FFF78FFAFFE7DA
S315000029101F204242295C2244401ED177F9D531BDA1
S315000029202DE9F04F0D0018BF5FEA0308B9B0144651
S3150000293003D0429E0EB1002C02DC40F20160D5E0CD
S31500002940074600203860386378630C21786840F0C9
S3150000295010007860384600F0CDFA786820F44060C0
S3150000296040F40060786011A9786820F4407040F463
S31500002970007078600020FFF719FD11AA314638462D
S31500002980FFF733FD78B93046FFF722FD58B111AA9B
S3150000299006F120013846FFF728FD20B906F1200090
S315000029A0FFF716FD10B940F202609FE0202CC8BF69
S315000029B02024202119A8FFF739FA002014E0221A52
S315000029C0521E09A99208A4F1010E01EB8201AEEB99
S315000029D0000E2B5C0A6C4FEACE0E0EF0180E03FAB0
S315000029E00EF31A430A64401CA042E8DB00F07DFAAD
S315000029F0044607F5847519A92846FFF7BBFCFFF7BF
S31500002A005CFE5B48386507F5807400F06EFA814617
S31500002A1019A92046FFF7B9FC484600F063FA01AB56
S31500002A2011AA06F120013846FFF74FFE00F05DFAC5
S31500002A30834601A907F58270FFF79CFC07F58879A4
S31500002A4019A94846FFF796FC07F5867AFFF727FE91
S31500002A50FFF728FE474848493865796500F045FA8A
S31500002A60834619A94846FFF790FC01A92046FFF7BF
S31500002A708CFCFFF717FE21A8009019AB53A200218A
S31500002A803846FFF774FE09A8009001AB42460021C4
S31500002A903846FFF76CFE21AB21AA00213846FFF726
S31500002AA0DFFE09AB21AA09A93846FFF7BBFC09AB33
S31500002AB009AA00213846FFF7D3FE00F016FA0446AD
S31500002AC00C21384600F016FA09A92846FFF752FCF1
S31500002AD0FFF7E5FDFFF7F1FD2848224938657965DE
S31500002AE07869C1014CBF002040F2046039B0BDE8EE
S31500002AF0F08F00003035DA10D01482CB1481E11C3F
S31500002B008CE11C811C84D91C8391D11CE014D8143F
S31500002B101482E11C84D31482D11CE0148AD11C8156
S31500002B20821CC00C0C0C0100C00C0C83D91C83D871
S31500002B308AD11C83DA0C811482D11C81C80C0C81C9
S31500002B408CE11CD01484E31482D11C01D81483D1E7
S31500002B501CC00C0139398401D02484FC1C82FED8A7
S31500002B608B1C81A039380100D91C83D11C81E11C42
S31500002B7030D00C0130E11C8430D91C013035DA1418
S31500002B802000000000010000050C0000FFFFFFFF11
S31500002B90FFFFFFFFFFFFFFFF000000000000000037
S31500002BA00000000001000000FFFFFFFF512563FC4D
S31500002BB0C2CAB9F3849E17A7ADFAE6BCFFFFFFFFB2
S31500002BC0FFFFFFFF00000000FFFFFFFF96C298D83F
S31500002BD04539A1F4A033EB2D817D0377F240A46340
S31500002BE0E5E6BCF847422CE1F2D1176BF551BF3749
S31500002BF06840B6CBCE5E316B5733CE2B169E0F7C1C
S31500002C004AEBE78E9B7F1AFEE242E34F62F30F2206
S31500002C1062F31F42401810F0030308D0C91A1FD3ED
S31500002C20DB0748BF00F8012D28BF20F8022D13004E
S31500002C3030B414461546103928BF20E93C00FAD8AE
S31500002C40490728BF20E90C0048BF40F8042D890039
S31500002C5028BF20F8022D48BF00F8012D30BC704770
S31500002C60C91818BF00F8012DCB0728BF00F8012DA1
S31500002C7070472DE9F843089D099F80460E46914608
S31500002C801C4600F0C1F93A462946404600F0C2F912
S31500002C9008F124000021016006750C22494608F15E
S31500002CA03900FEF7F9FA08F14500210C220A847072
S31500002CB001704270BDE8F1833EB5029201911C4657
S31500002CC000F12805009500F1380300F124022146A1
S31500002CD000F0C4F937BDFEE70300002013F0030F30
S31500002CE009D0521E22BF13F8010B11F801CBB0EB2D
S31500002CF00C00F3D07047121F22BF53F8040B51F893
S31500002D0004CB6045F7D0121D0AD200BA9CFA8CFC9F
S31500002D10B0EB0C0038BF6FF0000088BF0120704791
S31500002D20521E22BF13F8010B11F801CBB0EB0C00B9
S31500002D30F6D0521C08BF10467047FEE700B500BF2C
S31500002D40130096469446103928BFA0E80C50FAD8CE
S31500002D505FEA417C28BF0CC048BF40F8042BC90776
S31500002D6028BF20F8022B48BF00F8012B00BDFEE764
S31500002D7010B50A684B688C68C96802600360046015
S31500002D80016010BD10B502680368046800680A6037
S31500002D908C604B60C86010BD38B504460D46FFF721
S31500002DA0F1FF05F110012046BDE83440EAE72DE9C0
S31500002DB0F84F98B006460C4690469A4600F0FBF946
S31500002DC005461EB1022E52D051D352E00020286093
S31500002DD0002169600020E864696821F44061696047
S31500002DE02863686354F8201009BA4DF82010401C77
S31500002DF00828F7D300F079F8044605F58276694687
S31500002E003046FFF7B5FF04A93046FFF7B1FF20466D
S31500002E1000F068F82F4828650027229C05F5D27631
S31500002E20A74242D218F0030008EB871906D04022C9
S31500002E30494608A8FEF730FA0DF1200900F055F8CA
S31500002E408346494600F04CF809F1100100F048F8B5
S31500002E5009F1200100F044F809F1300100F040F8D2
S31500002E60584600F03FF81C4828657F1CD8E7042028
S31500002E70ADE71A4816E000F038F8044651463046E9
S31500002E80FFF78AFF204600F02DF8284600F09CF94F
S31500002E9000205AF8201009BA4AF82010401C0828C9
S31500002EA0F7D3002019B0BDE8F08F1AF0030005F53E
S31500002EB08076E0D000F019F8044669463046FFF700
S31500002EC06BFF204600F00EF8202269465046FEF7BA
S31500002ED0E3F9DAE7888AC801070D810180AFFFFFB1
S31500002EE0304645E700B962B67047EFF3108072B618
S31500002EF07047FEE742685209042941EA42120AD99C
S31500002F00491F022905D9C91E032904D9091F022907
S31500002F1002D842F0100242607047FEE7890001EBDA
S31500002F20401101F184410A60704710B50A684B6888
S31500002F308C68C968026003600460016010BDF4E734
S31500002F4010B502680368046800680A608C604B600C
S31500002F50C86010BD38B5102A04460D460DD10122B1
S31500002F600021FFF7DBFF04F5887429462046FFF7AA
S31500002F70DCFF05F11001204606E000220021FFF7E4
S31500002F80CDFF294604F12400BDE83440CDE71FB546
S31500002F900C4614F0030108D06946FFF7D1FF102252
S31500002FA069462046FEF778F91FBD2146FFF7C8FFA0
S31500002FB01FBD1FB5044611F0030008D01022684655
S31500002FC0FEF76AF969462046FFF7B9FF1FBD20469E
S31500002FD0FFF7B5FF1FBD38B5044611F0030088B0F2
S31500002FE015460CD0082D0CBF102220226846FEF78D
S31500002FF053F92A4669462046FFF7ACFF02E0204611
S31500003000FFF7A8FF09B030BD00281CBF2421FEF73A
S315000030100DBF704770B505000C4618BF002C16464C
S3150000302002D16FF0210070BD2421FEF7FFFE802E35
S3150000303018BFB6F5807F02D06FF0220070BD2E60FB
S31500003040F2082146281DFEF727F9002070BD5946D3
S3150000305005F180009BE74846FFF744BF2DE9F64F90
S3150000306083B0002A14BF14680024002700900028AB
S315000030701CBF0F9E002E09D0DDF84080B8F1000F6E
S315000030801CBF0193002B01D00E9810B96FF02100E0
S3150000309075E0009800680291802818BFB0F5807F1F
S315000030A004D06FF022006AE000F06CF802988742C4
S315000030B061D2002CF8D100F07EF805460020686049
S315000030C04FF4404129604FF0000AFFF70EFF81469A
S315000030D00098016880290CBF08221022011D28468D
S315000030E0FFF779FF019905F18400FFF762FFFFF70B
S315000030F0B2FF0298A0EB070913E000F04EF80AF1C0
S31500003100010AFFF7F2FE8346F11905F1A000FFF769
S3150000311050FF08EB0701FFF79BFF5846FFF7E2FE5B
S315000031201037BAEB191F15D24820A8600521A960EF
S31500003130E3E76CB94820A8600521A96000F02DF8E6
S31500003140FFF7D3FE81460E99FFF782FFFFF783FF55
S3150000315000F018F80298C01BEBD1FFF7C6FE8146B7
S31500003160019905F18400FFF712FFFFF774FF284667
S3150000317000F02AF89AE7049800B10460002005B030
S31500003180BDE8F08F0E9AF15D105D414008F807101A
S31500003190641C04F00F047F1C704728698107FCD467
S315000031A00320A8607047FEE7890001EB401101F19A
S315000031B084410A60704780B5FFE701220121064875
S315000031C0FFF7F2FF054802BD0449884203D10022F9
S315000031D001210148E8E77047B0400E4000000F406B
S315000031E00C490D4808600D48026842F470020260FE
S315000031F00B48416941F4005141610268920892000E
S315000032000260416B490849004163016A21F080511F
S315000032100162704708ED00E00008000088ED00E05C
S3150000322040300E402DE9F04399B004460D4605A8FE
S315000032305021FEF7FBFD00F0E1F86846FDF738FE89
S31500003240039802284FF0FF3609D2002020600120A3
S31500003250A8423CBF44F82060401CF9D364E0A84271
S3150000326038BF40F2045060D3FDF77EFC80460498D8
S315000032700C2205A9C7684046FDF7BBFD0028474458
S3150000328053D10598DFF86C91484522D00C2205A948
S315000032903846FDF7AEFD002847D10598484507D0CA
S315000032A00020A8423CBF44F82060401CF9D33FE010
S315000032B0079A05A93846FDF79CFD0498C168404663
S315000032C0FDF7C1FD88BB079A05A94046FDF7A0FD9D
S315000032D058BB079A05A94046FDF78BFD079932466C
S315000032E005A8FDF713FB4449884207D00020A842F1
S315000032F03CBF44F82060401CF9D319E00798103809
S315000033008008A84288BF2846002108AA04E052F88F
S31500003310213044F82130491C8142F8D3A8423CBFF1
S3150000332044F82060401CF9D3002019B0BDE8F083B2
S3150000333040F20550F9E7F0B599B005460C4605A8E8
S315000033405021FEF773FD502107910127294E05965E
S31500003350069700F053F86846FDF7AAFD0398A042C9
S3150000336007D302280AD22868002818BF10F1010FD7
S3150000337002D040F204503AE0002038E00020C04677
S3150000338006460498C768BF19112C28BF10240020D0
S3150000339008A904E055F8202041F82020401CA0424E
S315000033A0F8D34FF0FF3002E041F82400641C102CE3
S315000033B0FAD302464C2105A8FDF7A8FAC043189097
S315000033C00498C1683846FDF73EFD80B9502205A92C
S315000033D03846FDF71DFD50B90498C1683046FDF723
S315000033E032FD20B9502205A93046FDF711FD19B06E
S315000033F0F0BD000039528FE1E320BBDE68461421A0
S31500003400FEF714BD30B595B00446FFF7F7FF6846E2
S31500003410FDF74EFD039D022D20D3294605A8FFF793
S3150000342001FF00281CBF40F20551884218D1002038
S3150000343005A902E0A2420ED0401CA8420ED251F8C5
S31500003440202012F1010FF5D141F82040294605A8A8
S31500003450FFF771FF04E040F2035001E040F2025032
S3150000346015B030BD4EF68851CEF20001086840F422
S3150000347070000860BFF34F8FBFF36F8F4FF000707F
S31500003480E1EE100A704700000120C046002801D076
S31500003490AFF30080AFF300800020AFF30080FDF7AC
S315000034A065FA00F000F800F001B80000074638465B
S315000034B000F002F8FBE7000020210903263118205E
S315000034C0ABBEF9E780B5FFF78BFEFDF7A1FABDE8C5
S315000034D0014000F000B8AFF30080FFF7C3FFFFF72D
S30D000034E0D3FF0000000000000C
S5030338C1
S70500000000FA
