S024000062745F6D6F64756C655F626F6F746C6F616465722D636F6D62696E65642E7333371D
S3150FE100000F4880F308880F4800470000ED05E10F20
S3150FE10010ED05E10FED05E10FED05E10FED05E10F62
S3150FE10020ED05E10FED05E10F0806E10FED05E10F36
S3150FE10030ED05E10FED05E10FED05E10FED05E10F42
S3150FE1004000400020A105E10F10B5054C237833B927
S3150FE10050044B13B10448AFF300800123237010BDA5
S3150FE1006010010020000000001C06E10F08B5034B4C
S3150FE100701BB103490348AFF3008008BD0000000040
S3150FE10080140100201C06E10F044B054A9A60D3F8D0
S3150FE10090882042F47002C3F88820704700ED00E033
S3150FE100A00000E10F094A0A4BD969C90705D512B90B
S3150FE100B06FF002007047013AF6E7002AF8D0012205
S3150FE100C01861DA60D86940F380007047809698002E
S3150FE100D000000E4070B509B9002070BDC2B9244BBE
S3150FE100E0082550F822409C61224CDD600132DE6921
S3150FE100F0F60705D514B96FF00200EEE7013CF6E716
S3150FE10100002CF8D0DC69A60720D49142E9D1E3E7C8
S3150FE10110EFF3108572B6164B00221026DC69240721
S3150FE1012017D550F822409C6101329142DE60F5D13C
S3150FE1013005B962B60E4A0F4B1146D069C40711D500
S3150FE1014073B96FF00200CB699B07C6D56FF001005B
S3150FE10150C3E7DC6904F01904102C08BFDC60DDE7A6
S3150FE10160013BEAE7002B0CBF6FF002000020EAE744
S3150FE1017000000E40809698002DE9F04799461D4BF9
S3150FE101800E4641F671311D6C19641B49804648686C
S3150FE101904968996841F00101ADB2996097084FF04E
S3150FE101A0000ABA4501D3002005E008EB8A04204690
S3150FE101B0FFF778FF48B10F4B9A6822F001029A6078
S3150FE101C00DB100221A64BDE8F087C4F30A04C4F541
S3150FE101D00064A408A7EB0A039C4228BF1C464A46C3
S3150FE101E021463046FFF776FF0028E4D1A24406EB1D
S3150FE101F08406D6E700000E4000300E40204B41F654
S3150FE1020071311A6C10B519641E494C6849689968C1
S3150FE1021041F00101996001211861D960D9694C0753
S3150FE1022092B209D5996821F0010199600AB10022CC
S3150FE102301A644FF0FF301FE00221134CD9601946C3
S3150FE10240D869C00700D56CB9C8698B6810F0020090
S3150FE1025023F001038B6007D00AB100230B646FF023
S3150FE10260010009E0013CEBE724B902B10C646FF040
S3150FE10270020001E00AB1086410BD1046FCE700BFB9
S3150FE1028000000E4000300E40809698000023FFF7E5
S3150FE1029073BF000008B50A4B1A680A4B1A600A4B7E
S3150FE102A040221A615A685203FCD400F079F800280B
S3150FE102B0FBD040F2022000F0ADF8002008BD00BFF0
S3150FE102C0040100200001002000300E4010B50F4C54
S3150FE102D00F4BA36000F0BEF80E4B5B68B3F5803FA2
S3150FE102E009D040F20923984202D0B0F5007F02D13E
S3150FE102F000F014F848B9084BA3601A6882F308882E
S3150FE1030082F309885B689847FEE710BD00ED00E0D0
S3150FE103100000E10F00500E400008E10FF8B51C4B4D
S3150FE103201A681069D568836AAB4201D20020F8BD1D
S3150FE1033005F560529A42F9D95B1BC618C758154B9A
S3150FE103409F42F3D14FF0FF32F16800F00DF9124BF6
S3150FE1035098420446EAD1114B1B68A3F17E62A2F5DE
S3150FE103608432B2F5605F10D21A68BA420DD1B16824
S3150FE103709A68914209D84FF0FF32D968284600F0C2
S3150FE10380F3F8001B18BF0120D1E70120CFE700BF2B
S3150FE103902800E10F07B0CD5EE320BBDE2808E10FB1
S3150FE103A0F8B5184B1B68D3E90347BB6A1B1BFD184E
S3150FE103B02646EA68A318B3421CD83946204600F010
S3150FE103C09BF8B0B1104B1B68A3F17E62A2F58432A4
S3150FE103D0B2F5605F14D219680C4A914210D1D9680F
S3150FE103E04FF0FF32204600F0BFF8094BC31A5842CF
S3150FE103F05841F8BD304600F074F806F50066D8E7C7
S3150FE104000020F6E72800E10F2808E10F07B0CD5EDF
S3150FE10410E320BBDE4FF000534FF20F025A800A4A38
S3150FE104201880136823F4E06343F480631360BFF32A
S3150FE104304F8F0649064BCA6802F4E0621343CB605D
S3150FE10440BFF34F8F00BFFDE700500E4000ED00E018
S3150FE104500400FA054FF000534FF20F015A888A4212
S3150FE1046001D1188870473AB91B88012B40F2022057
S3150FE1047018BF4FF4007070474FF4007070470000DB
S3150FE10480044B41F671321A649A6822F001029A60BE
S3150FE10490704700BF00000E40034B9A6822F001023D
S3150FE104A09A6000221A64704700000E4007B50346B2
S3150FE104B09B0753BF6FEA01414FF6FF7343EA0141D1
S3150FE104C06FEA1141019120F00300FFF7D9FF0422F2
S3150FE104D00DEB0201FFF7DAFEFFF7DEFF03B05DF882
S3150FE104E004FB08B5FFF7CCFFFFF788FEFFF7D4FF54
S3150FE104F0B0FA80F0400908BDF8B540EA02031446A8
S3150FE10500DA0705460E4601D50020F8BD0CB90120E4
S3150FE10510FBE7830725D50988FFF7C8FF0028F3D145
S3150FE10520023C032C05F1020506F102060FD924F070
S3150FE105300307FFF7A5FF3A4631462846FFF7A6FE22
S3150FE10540FFF7AAFF0028DFD13E443D44E41B002C10
S3150FE10550DDD031882846FFF7A9FFB0FA80F04009D0
S3150FE10560D3E7032CE3D8F4E710B50B4CD4F8B0304E
S3150FE1057043F04003C4F8B030084B01241C6001443A
S3150FE105809A605C601A46884201D1D86910BD10F8AD
S3150FE10590014B9461F7E700BF00400E4000C00140F8
S3150FE105A00B4880470B4880470B490C4A0C4B9A4244
S3150FE105B0BEBF51F8040B42F8040BF8E709490A4AA2
S3150FE105C000209142BCBF41F8040BFAE7FFF762FE48
S3150FE105D08900E10FCD02E10F2006E10F00010020B6
S3150FE105E010010020100100202C010020FEE700BFC2
S3150FE105F0F8B500BFF8BC08BC9E467047F8B500BF1A
S3150FE10600F8BC08BC9E467047AD1007B0010000006C
S3150FE10610000208010008E10F008000000000000061
S3150FE10620C0EA2101C0EA21016D00E10F4900E10FA6
S3150FE10800007C0020A108E10F9D08E10FF108E10F3F
S3150FE108109D08E10F9D08E10F9D08E10F9D08E10F8E
S3150FE108209D08E10F9D08E10FEC34E10F9D08E10F03
S3150FE108309D08E10FA034E10F9D08E10F9D08E10F3F
S3150FE1084010B5054C237833B9044B13B10448AFF314
S3150FE1085000800123237010BD080100200000000075
S3150FE108606037E10F08B5034B1BB103490348AFF3FB
S3150FE10870008008BD000000000C0100206037E10F89
S3150FE10880044B054A9A60D3F8882042F47002C3F804
S3150FE108908820704700ED00E00008E10FFEE7000059
S3150FE108A008B5FFF7EDFF00F06BF80A4A0A4B0B4963
S3150FE108B08B4206D30A4B0B4A0021934206D300F033
S3150FE108C023F852F8040F43F8040BF1E743F8041B3E
S3150FE108D0F3E700BF6037E10F0001002008010020B8
S3150FE108E0080100202401002000F058BF00F0A7BF47
S3150FE108F008B5044800F074FD4FF40170BDE80840F7
S3150FE1090002F054BD7434E10F194B07B501225A6455
S3150FE109101A68184842F480721A6000F061FD164BAE
S3150FE1092040221A615A685203FCD4FFF7DDFF02F049
S3150FE1093036FD01F0B7FB30B940F2012002F036FD8A
S3150FE109404FF401700AE00D4B0193019B002B0BDC79
S3150FE1095040F205439842F3D140F2032002F026FD1F
S3150FE10960002003B05DF804FB019B013BECE700BF00
S3150FE1097000000E40E034E10F00300E4000350C0070
S3150FE1098008B500F03DFD1B4B5B685B050AD40123FF
S3150FE1099004221268013214D14FF40270BDE8084007
S3150FE109A002F0F6BC02F022FDA0F2022080B2072887
S3150FE109B0EDD8012303FA00F010F0C90F18BF002399
S3150FE109C0E6E7ABB1002002F057FC0028E4D00A4875
S3150FE109D000F006FD00F00EFD084A0023936018466D
S3150FE109E0016881F3088881F3098840688746FEE745
S3150FE109F008BD00BF00500E408434E10F00ED00E06A
S3150FE10A000020704710B50B4CD4F8B03043F04003DB
S3150FE10A10C4F8B030084B01241C6001449A605C6055
S3150FE10A201A46884201D1D86910BD10F8014B94617D
S3150FE10A30F7E700BF00400E4000C00140F8B504469D
S3150FE10A401D4616460F4600F090FFDDE906122046D9
S3150FE10A5000F091FF0023636284F838703268C4F8BE
S3150FE10A6039207268C4F83D202B0CB26884F8453002
S3150FE10A702B0AC4F8412084F8463084F84750F8BD74
S3150FE10A8030B585B01D4600F12803CDE9011200937B
S3150FE10A9000F1240200F13803294600F08AFF05B080
S3150FE10AA030BD0000F0B50F46A3B016461D4604460D
S3150FE10AB020B319B312B30121124800F017FD4022FA
S3150FE10AC0002102A802F0C1FC294602A800F010FBA2
S3150FE10AD012AD28990AA800F00BFB3946284600F01B
S3150FE10AE007FB31461AA800F003FB009502AB202263
S3150FE10AF02146054800F00CFB23B0F0BD40F2016042
S3150FE10B00FAE700BF00050A0000000F4010B50446E2
S3150FE10B1001F0F6F920460021BDE8104001F01BBABD
S3150FE10B2001F023BA014601F022BA1C2350F8042F33
S3150FE10B300AB9043BFAD1002BCCBF00200120704744
S3150FE10B4030B50568046802680368C1E90054C1E974
S3150FE10B5002230568046802680368C1E90454C1E920
S3150FE10B60062330BDD1E9022330B5D1E90054056042
S3150FE10B70046002600360D1E90454D1E906230560FC
S3150FE10B8004600260036030BD2DE9F04104461D4665
S3150FE10B900E46904600211C22181D02F056FC012339
S3150FE10BA02B6000F0E1FC4146074604F58070FFF744
S3150FE10BB0D9FF314604F5827004F58476FFF7D2FF4B
S3150FE10BC029463046FFF7CEFF384600F0D1FC0D4FF0
S3150FE10BD00D4B0E4A0E490F4823656369DB010BD5B1
S3150FE10BE000F0C2FC294604463046FFF7A9FF20462E
S3150FE10BF0BDE8F04100F0BCBC22656165A065E76523
S3150FE10C00EBE700BF3938010039398401D02484FC80
S3150FE10C101C82FED88B1C81A02DE9F04F8DB00446C6
S3150FE10C2098460F46154600F09FFC04F5827607F1CC
S3150FE10C304002114604F5867B814630460392FFF763
S3150FE10C4091FF29465846FFF78DFF04F5887318463D
S3150FE10C5005F120010293FFF785FF484600F088FC76
S3150FE10C60424921654249616501254249A165E5652B
S3150FE10C7000F07AFC04F5847907F1200A01903946F0
S3150FE10C803046FFF76FFF51464846FFF76BFF039A72
S3150FE10C90029B11461846FFF765FF019800F068FCC5
S3150FE10CA0354B2365354B6365A56500F05DFC04F5B2
S3150FE10CB08073019008F1400118460293FFF740FF58
S3150FE10CC004A94846FFF73CFF019A104600F050FC95
S3150FE10CD000F04AFC394601905846FFF743FF019A67
S3150FE10CE0104600F045FC264A2265264A62656FF4F6
S3150FE10CF02673A2F5FE221A44A265E56500F034FCDF
S3150FE10D00514607463046FFF72DFF384600F030FCD7
S3150FE10D101D4A22651D4A6265A56500F025FC41461F
S3150FE10D2007464846FFF70CFF384600F021FC00F076
S3150FE10D301BFC04A907463046FFF714FF384600F0BF
S3150FE10D4017FC134A2265134A6265A56500F00CFC90
S3150FE10D50029B044608F120011846FFF7F1FE2046F3
S3150FE10D6000F006FC0DB0BDE8F08F00BF8AD11C8103
S3150FE10D70D91C83D11C81E11CD01482CB1481E11CD7
S3150FE10D808CE11C811C84D91CE014D8141482E11C5B
S3150FE10D9084D31482D11CE0142DE9F041044690B0BE
S3150FE10DA00F46244E0521904600F0E5FB0023236014
S3150FE10DB0236363630FCE08AD0FC596E80F0085E891
S3150FE10DC00F0008AA6B4607F140012046FFF7DCFE4C
S3150FE10DD000F0CAFB04F586750646694604F582708E
S3150FE10DE0FFF7C0FE39462846FFF7BCFE07F12001A3
S3150FE10DF004F58870FFF7B6FE304600F0B9FB0E4BEF
S3150FE10E0023650E4B63650E4BA3650123E36500F086
S3150FE10E10ABFB08F12001064604F58070FFF790FE63
S3150FE10E2041462846FFF78CFE304600F0A1FB10B095
S3150FE10E30BDE8F0812C35E10F8AD11C81D91C83D114
S3150FE10E401C81E11C2DE9F04FA5B01D460446CDE905
S3150FE10E50001205A81C22002102F0F7FA4FF0010853
S3150FE10E6020220021284605F12007CDF8108005F153
S3150FE10E70400A02F0EAFA20220021384602F0E5FAAA
S3150FE10E8020220021504602F0E0FA0521204600F02B
S3150FE10E9072FB00232360FF262363636372110198BC
S3150FE10EA006F01F0350F8222008FA03F3134206F166
S3150FE10EB0FF3102D10E460029F0D100F055FB04F5C2
S3150FE10EC082733946804618460293FFF74BFE40463A
S3150FE10ED000F04EFB7A4B7B4A236562657A4AA2653F
S3150FE10EE000F042FB04F5807914A980464846FFF7E6
S3150FE10EF027FE404600F03CFB00F036FB29468046D4
S3150FE10F004846FFF72FFE404600F032FB6F4A704B23
S3150FE10F1022654FF486726365A26500F025FB04F541
S3150FE10F20867883460CA94046FFF70AFE1CA9484678
S3150FE10F30FFF706FE584600F01BFB00F015FB029B80
S3150FE10F400393514683461846FFF70CFE584600F0C9
S3150FE10F500FFB604B23650123636500F005FB04F589
S3150FE10F60847B294602905846FFF7FCFD029A10460C
S3150FE10F7000F0FEFA584A226502F1D94202F5DE1275
S3150FE10F8002F595626265A2F586120123A2F2BA42D3
S3150FE10F90A265E36500F0E8FA1CA902905846FFF74F
S3150FE10FA0E1FD0CA94046FFF7DDFD029A104600F080
S3150FE10FB0DFFA4A4A22654A4A62654A4AA26500F061
S3150FE10FC0D3FA2946029004F58870FFF7B9FD029A24
S3150FE10FD0104600F0CDFA00F0C7FA039B02903946AE
S3150FE10FE01846FFF7BFFD58465146FFF7BBFD14A95B
S3150FE10FF04046FFF7B7FD029A104600F0B9FA3A4BB1
S3150FE1100023653A4B636500F0AFFA5146834648468E
S3150FE11010FFF796FD39464046FFF792FD584600F039
S3150FE11020A7FA012106F01F0301FA03F372110199E1
S3150FE1103051F82220134217D02B687BB92846FFF7C8
S3150FE1104074FD58B12B6A4BB93846FFF76EFD28B1DF
S3150FE110502B6C1BB95046FFF768FD60B92B46009A1A
S3150FE1106029462046FFF7D8FD16F1FF36BFF425AF27
S3150FE1107025B0BDE8F08F009BAC4603F1200E186852
S3150FE110805968624603C2083373459446F7D1BC46A5
S3150FE1109003F1200E18685968624603C20833734597
S3150FE110A09446F7D10DF1100EBEE80F0005F1400C95
S3150FE110B0ACE80F009EE80F008CE80F00D4E700BF05
S3150FE110C08AD11C81821CC00C0C0C0100C00C0C8354
S3150FE110D0D91C83D88AD11C83DA0C81148CE11CD0FC
S3150FE110E01484E31482D11C01D81483D11CC00C01E2
S3150FE110F010B520220C46002102F0A7F904F12002D7
S3150FE11100013812F8013D00F8013FA242F9D110BDB5
S3150FE111102DE9F04FBBB0044690469A46449F894667
S3150FE11120002900F01B81002B00F01881002F00F041
S3150FE111301581002A40F312810023036003634363A1
S3150FE111404368884E43F0100343600C2100F013FA15
S3150FE11150636823F4406343F400636360636823F4D5
S3150FE11160407343F4007363600FCE2AAD0FC596E863
S3150FE111700F0085E80F0000F0F7F904F58476834652
S3150FE111803946304604F58675FFF7ECFC2AA9284661
S3150FE11190FFF7E8FC584600F0EBF90122724B2365A5
S3150FE111A062656269D20104D440F202603BB0BDE8E8
S3150FE111B0F08F391F082251F8040F002800F0C6807E
S3150FE111C0019300F0D1F907F1200B00905946304613
S3150FE111D0FFF7C8FC2AA92846FFF7C4FC009A104678
S3150FE111E000F0C6F9019B2365012363656369DB01A2
S3150FE111F0DAD507F11C02082352F8041F002900F083
S3150FE11200A980B8F1200FA8BF4FF0200820220021B6
S3150FE1121032A802F01AF908F1FF30CC4620F00303A9
S3150FE112203AA940330B441CF8012B00F00301C90026
S3150FE112308A4053F8601C0A4343F8602CACEB090370
S3150FE11240434500F1FF30E9DB00F08EF932A9804624
S3150FE112503046FFF787FC404600F08AF9434B23659A
S3150FE1126000F082F904F58078814632A94046FFF70E
S3150FE1127067FC484600F07CF92AAA02AB594620469C
S3150FE11280FFF782FC00F070F904F58879834602A92D
S3150FE1129004F58270FFF766FC32A94846FFF762FC58
S3150FE112A039462846FFF75EFC584600F061F9304BA8
S3150FE112B0236503F1FA43A3F50063636500F054F97F
S3150FE112C032A983464846FFF73BFC02A94046FFF7A2
S3150FE112D037FC584600F04CF90AAB32AA25492046AD
S3150FE112E0FFF7B0FD22AB02AA51462046FFF7AAFD52
S3150FE112F00AAA11462046FFF74FFD22AB19460AAA65
S3150FE113002046FFF789FC22AA11462046FFF744FD46
S3150FE1131000F02AF90C218046204600F02CF922A98B
S3150FE113203046FFF71FFC39462846FFF71BFC4046C0
S3150FE1133000F01EF9104B2365104B6365636913F0DB
S3150FE11340807F40F2046018BF00202FE7013A7FF457
S3150FE1135032AF29E7013B7FF44FAF25E740F201605A
S3150FE1136024E700BF4C35E10F3035DA1030D00C01F0
S3150FE1137030E11C846C35E10F3035DA143938010070
S3150FE1138010B50446000909288CBF3730303000F01C
S3150FE1139091F804F00F0009288CBF37303030BDE8E3
S3150FE113A0104000F087B810B50446000AFFF7E8FFD2
S3150FE113B0E0B2BDE81040FFF7E3BF10B50446000CFD
S3150FE113C0FFF7F1FFA0B2BDE81040FFF7ECBF10B594
S3150FE113D0441E14F8010F00B910BD00F06BF8F8E7E1
S3150FE113E008B5FFF7F4FF0248BDE80840FFF7EFBF86
S3150FE113F0AC35E10F0148FFF7EABF00BFAC35E10FAE
S3150FE11400254AD2F8B03043F00803C2F8B030234B87
S3150FE11410D3F8401441F01001C3F84014D3F8441443
S3150FE1142021F00301C3F84414D3F8F41021F47061E9
S3150FE11430C3F8F410D3F8F41041F48061C3F8F41053
S3150FE1144010231366D2F890309B06FBD5144B1A681E
S3150FE1145042F001021A60DA6842F08072DA60114BEB
S3150FE11460114A1A6003F57C3315221A610222C3F879
S3150FE11470F0204FF48072C3F804234FF060430B4A18
S3150FE11480C3F8B02F0A4AC3F8802ED3F8002E42F0E4
S3150FE114900102C3F8002E704700400E4000A0004045
S3150FE114A0F0ED00E0001000E0FF13014055CEACC5B2
S3150FE114B0090001004FF06043D3F8802ED10706D51E
S3150FE114C0D3F8002ED20702D51A680AB11870704701
S3150FE114D000BFF9E7044BD3F84421D20703D4D3F87D
S3150FE114E040211042FBD1704700400E40C0F303226A
S3150FE114F0013A38B50546092A13D8DFE802F0231376
S3150FE115001212051619121C20104C0020C5F30435D2
S3150FE1151008B1FFF7DFFF04F1047405EBC404A4007F
S3150FE11520216038BD00200A4CF0E70120094CEDE7B8
S3150FE115301020094CEAE74FF48030084CE6E700202B
S3150FE11540074CE3E70020074CE0E700BFB0400E4051
S3150FE11550C0400E40E0400E40E8400E40F0400E40E5
S3150FE1156050410E4000400E40EFF3108072B67047C7
S3150FE1157000B962B670470E2910B543680DD801223E
S3150FE115808A4047F2E004224223F01F0306D140F6D8
S3150FE115901F74224201D01943416010BD41F0100181
S3150FE115A0F9E70000094A0A4BD969C90705D512B906
S3150FE115B06FF002007047013AF6E7002AF8D00122F0
S3150FE115C01861DA60D86940F3800070478096980019
S3150FE115D000000E4070B509B9002070BDC2B9244BA9
S3150FE115E0082550F822409C61224CDD600132DE690C
S3150FE115F0F60705D514B96FF00200EEE7013CF6E701
S3150FE11600002CF8D0DC69A60720D49142E9D1E3E7B3
S3150FE11610EFF3108572B6164B00221026DC6924070C
S3150FE1162017D550F822409C6101329142DE60F5D127
S3150FE1163005B962B60E4A0F4B1146D069C40711D5EB
S3150FE1164073B96FF00200CB699B07C6D56FF0010046
S3150FE11650C3E7DC6904F01904102C08BFDC60DDE791
S3150FE11660013BEAE7002B0CBF6FF002000020EAE72F
S3150FE1167000000E40809698002DE9F04799461D4BE4
S3150FE116800E4641F671311D6C19641B498046486857
S3150FE116904968996841F00101ADB2996097084FF039
S3150FE116A0000ABA4501D3002005E008EB8A0420467B
S3150FE116B0FFF778FF48B10F4B9A6822F001029A6063
S3150FE116C00DB100221A64BDE8F087C4F30A04C4F52C
S3150FE116D00064A408A7EB0A039C4228BF1C464A46AE
S3150FE116E021463046FFF776FF0028E4D1A24406EB08
S3150FE116F08406D6E700000E4000300E40204B41F63F
S3150FE1170071311A6C10B519641E494C6849689968AC
S3150FE1171041F00101996001211861D960D9694C073E
S3150FE1172092B209D5996821F0010199600AB10022B7
S3150FE117301A644FF0FF301FE00221134CD9601946AE
S3150FE11740D869C00700D56CB9C8698B6810F002007B
S3150FE1175023F001038B6007D00AB100230B646FF00E
S3150FE11760010009E0013CEBE724B902B10C646FF02B
S3150FE11770020001E00AB1086410BD1046FCE700BFA4
S3150FE1178000000E4000300E40809698000023FFF7D0
S3150FE1179073BF000000487047B035E10F0020704776
S3150FE117A0024BD86900F00100704700BF00000E4000
S3150FE117B008B5034608469918B1F5002F04D819461E
S3150FE117C001F038FE002008BD40F20240FBE7831826
S3150FE117D0B3F5002F10B50ED940F2024010BDC45833
S3150FE117E001340AD104339A42F9D801F055FC0028A5
S3150FE117F0F2D00020F2E70023F5E740F20340EDE7F0
S3150FE1180038B5C1F30A030446B3B9C0F30A039BB96A
S3150FE118100D18B5F5002F08D8204604F5006401F040
S3150FE1182030FCA54204D00028F6D140F2024038BD83
S3150FE118300028FAD00020FAE740F20440F7E700204B
S3150FE11840704730B50568046802680368880785B094
S3150FE1185011D0CDE90054CDE902236C460B4604AD18
S3150FE11860224603CAAA4218605960144603F10803D7
S3150FE11870F6D105B030BDC1E90054C1E90223F8E75D
S3150FE118807FB58B07024615D00B466D4601F1100663
S3150FE11890186859682C4603C40833B3422546F7D175
S3150FE118A0009B1360019B1360029B1360039B136004
S3150FE118B004B070BDD1E90054D1E90203156014609B
S3150FE118C01060F4E700F10473102A30B54FEA4313C1
S3150FE118D01AD101221A60D1E90054D1E90223C0F8E5
S3150FE118E01051C0F81041C0F81021C0F81031D1E9FC
S3150FE118F00454D1E90623C0F81051C0F81041C0F8DD
S3150FE119001021C0F8103130BD00221A60D1E9005420
S3150FE11910D1E902234562446242624362F3E7F0B5DD
S3150FE119208C0789B006460B4615460FD0082A6C463A
S3150FE1193010D101F1100718685968224603C208331E
S3150FE11940BB421446F7D12A4669463046FFF7BAFF3E
S3150FE1195009B0F0BD01F1200718685968224603C2A4
S3150FE119600833BB421446F7D1EDE718B12422002123
S3150FE1197001F06BBD704770B50E461546044690B142
S3150FE1198089B12422002101F060FD802D02D0B5F549
S3150FE11990807F0BD12046EA0840F8045B314601F01F
S3150FE119A049FD002070BD6FF02100FBE76FF02200CB
S3150FE119B0F8E72DE9F04F814685B088469B461646F6
S3150FE119C0F2B11768B9F1000F00F0B5800F9B002B4C
S3150FE119D000F0B180109B002B00F0AD80BBF1000F42
S3150FE119E000F0A9800E9B002B00F0A580D9F80030FE
S3150FE119F0802B03D0B3F5807F40F0A08000240DE06B
S3150FE11A001746DFE7A7B10F9B0E9A1B5DD25D5340D9
S3150FE11A10109A0137135507F00F0701344445F1D3F7
S3150FE11A20002E00F08E803760002005B0BDE8F08F04
S3150FE11A3000F08AF84FF44043476003600546FFF72D
S3150FE11A4093FDD9F80030802B824614BF102208226D
S3150FE11A5009F104012846FFF762FF05F184031846F1
S3150FE11A6059460093FFF70CFF5046A8EB040A2AF0FC
S3150FE11A700F0AFFF77DFDA244032354451AD10F9BAD
S3150FE11A8003EB040A109B1C440F9B4344019303236E
S3150FE11A90019A92452DD1FFF767FD59460446009805
S3150FE11AA0FFF7CFFE2046FFF763FD284600F056F815
S3150FE11AB04446B3E74822AA600522AA602A6991073C
S3150FE11AC0FCD4AB600293FFF74FFD0F9B0190191901
S3150FE11AD005F1A000FFF7D4FE109B05F1800019195F
S3150FE11AE0FFF7AFFE019A1046FFF742FD1034029B56
S3150FE11AF0C3E7AFB94822AA600522AA602A6992070D
S3150FE11B00FCD4AB600393FFF72FFD0E99029005F11D
S3150FE11B108000FFF796FE029A1046FFF729FD039B19
S3150FE11B200E991AF8012BC95D01374A4004F8012BCA
S3150FE11B3007F00F07ACE76FF0210076E76FF02200B1
S3150FE11B4073E7304671E70000024B034801221A6042
S3150FE11B50704700BF0016C84300000F40094B98427B
S3150FE11B600ED003F58063984209D10122064B03EBB0
S3150FE11B70C2035A68054B13449B0000221A60704753
S3150FE11B800022F3E700000F40E435E10F8005F21084
S3150FE11B902DE9F04F99B007460E4690461D46FFF7E1
S3150FE11BA0D3FF04462FB1022F00F2E5800423036031
S3150FE11BB000E0076000236360E364626822F4406239
S3150FE11BC062602363636356F8232012BA4DF823202C
S3150FE11BD00133082BF7D1FFF7C7FC009BC4F804319B
S3150FE11BE0019BC4F80431029BC4F80431039BC4F88A
S3150FE11BF00431049BC4F80431059BC4F80431069BF8
S3150FE11C00C4F80431079BC4F80431FFF7B1FCDFF8E0
S3150FE11C1074A15A4B2365002608F00309229B9E42C5
S3150FE11C2039D1AB0700F08A80FFF79EFCD4F800614B
S3150FE11C30D4F80011D4F80021D4F80031CDE90061D0
S3150FE11C40CDE90223D4F80061D4F80011D4F80021CC
S3150FE11C50D4F80031CDE90461CDE906232E46FFF72D
S3150FE11C6087FC08AF6B461A4603CABA423060716009
S3150FE11C70134606F10806F6D12046FFF76FFF2B1F35
S3150FE11C801C3553F8042F12BAAB421A60F9D1002072
S3150FE11C9019B0BDE8F08F08EB861BB9F1000F0FD035
S3150FE11CA008AA0BF1400CDBF80000DBF80410134631
S3150FE11CB003C30BF1080BE3451A46F4D10DF1200BE3
S3150FE11CC0FFF752FCDBE90131DBF80C20DBF80070A2
S3150FE11CD0C4F8A471C4F8A431C4F8A411C4F8A421BA
S3150FE11CE0DBE90531DBF81C20DBF81070C4F8A471D1
S3150FE11CF0C4F8A431C4F8A411C4F8A421DBE909316D
S3150FE11D00DBF82C20DBF82070C4F8A471C4F8A431F9
S3150FE11D10C4F8A411C4F8A421DBE90CC1DBE90E2355
S3150FE11D20C4F8A4C1C4F8A411C4F8A421C4F8A43119
S3150FE11D30FFF71EFC0136C4F850A06FE7FFF714FC5E
S3150FE11D40D4F80061D4F80011D4F80021D4F80031A9
S3150FE11D50C5E90061C5E90223D4F80061D4F80011A1
S3150FE11D60D4F80021D4F80031C5E90461C5E90623A9
S3150FE11D70FFF7FEFB80E702488AE700BF888AC801C2
S3150FE11D8080AFFFFF070D81012DE9F34702281446C6
S3150FE11D9080460E461F46DDE90A924ED81CB9002051
S3150FE11DA002B0BDE8F08713683F2B42D8516809B1FD
S3150FE11DB0002F3ED1B8F1010F3DD0224D2249B8F1A6
S3150FE11DC0020F18BF0D4603F03F00E318136022BF61
S3150FE11DD053680133536090B3C0F1400A544522D39F
S3150FE11DE031465246484401F025FB012300934A460A
S3150FE11DF03B4629464046A4EB0A04FFF7C9FE3F2CB2
S3150FE11E0056440DD93D46A309009332463B46294632
S3150FE11E104046FFF7BDFE24F03F031E4404F03F04A6
S3150FE11E20002CBCD0002022463146484401F002FB8B
S3150FE11E30B5E73D46C7E7054DC5E70548B0E73F2C92
S3150FE11E40F1D9E0E73436E10FF435E10F1436E10F5E
S3150FE11E5080AFFFFF2DE9F041012886B004460E461B
S3150FE11E6090461D4604D045D3022841D022483CE096
S3150FE11E701C272A68D3008DF80F3053098DF80E30E1
S3150FE11E80530B8DF80D30530D8DF80C306B68D9006F
S3150FE11E9001EB52718DF80B1002F03F025909372A07
S3150FE11EA08DF80A104FEA53314FEA535394BFC2F1FB
S3150FE11EB03802C2F178028DF809108DF808300F4912
S3150FE11EC03346CDE900852046FFF75EFF08220DEB8D
S3150FE11ED002013346CDE900852046FFF755FF3A4625
S3150FE11EE031460C9801F0A6FA002006B0BDE8F08164
S3150FE11EF02027BEE71427BCE780AFFFFF5436E10F7B
S3150FE11F0018B16C22002101F0A0BA704707B503465C
S3150FE11F1090F86800002803F12000019003F12800F2
S3150FE11F20009014BF01200220FFF72EFF03B05DF8EA
S3150FE11F3004FB07B590F868300091002B00F12802F9
S3150FE11F4000F12003014614BF01200220FFF782FFB3
S3150FE11F5003B05DF804FB00239942D4BF00210121B0
S3150FE11F60C0E9083380F868107047FFF7CFBFFFF776
S3150FE11F70E0BF002070470020704700207047002027
S3150FE11F8070470000014B1B68186970472808E10F7D
S3150FE11F90044B054A1B68196891420CBF186900206A
S3150FE11FA0704700BF2800E10FAD1007B00120704761
S3150FE11FB010B53148E0B0FFF70AFA0020FFF7FDF957
S3150FE11FC0FFF718FA4FF4BE7201A9002000F08CF961
S3150FE11FD040F20124002101A800F0C9F8A042F9D08E
S3150FE11FE040F20323984206D02448FFF7F9F940F26D
S3150FE11FF0054060B010BD9DF8043003F00302022ADC
S3150FE1200001D11F48F1E799070FD51E48FFF7DFF911
S3150FE120101D4B1B689868FFF7D0F91C48FFF7D7F9F6
S3150FE120200298FFF7CAF9FFF7E5F99DF804309A0729
S3150FE1203014D5154A02991268926891420ED95C98A5
S3150FE1204000F084F940B1FFF7A3FF0A9901F05AF9BD
S3150FE120500028CCD10E48C8E70E48C6E7DB0701D406
S3150FE120600D48C2E704995C9800F094F908B90B485A
S3150FE12070BBE70020BDE700BF9436E10F9B36E10FCA
S3150FE12080A736E10FBA36E10F2808E10FC236E10FA5
S3150FE12090C736E10FDF36E10FF036E10FFF36E10F1D
S3150FE120A000207047FFF784BF004870474A43E00FAF
S3150FE120B0004870476A43E00F004870478642E00FD9
S3150FE120C031B10A4B5A68824205D80023C1E9003380
S3150FE120D040F201407047013053F830200A6003EBBC
S3150FE120E0C00300205B684B60704700BFCC35E10F42
S3150FE120F001221A707047000070B40D4C0E4611465E
S3150FE12100626882420DD9013004EBC002F5185268BC
S3150FE1211095420AD854F830001A46304470BCFFF79E
S3150FE1212047BB40F2014070BC704740F20240FAE70C
S3150FE12130CC35E10F30B5A3B004460D4602AAD0F86F
S3150FE121407411D0F86C018023FFF7D6FF0095802339
S3150FE1215002AA214604F1280000F0D2FBD4F874312B
S3150FE12160C4F878018033C4F8743123B030BD1FB59C
S3150FE121700023CDE90033CDE90213D0F878310446D7
S3150FE12180A3B9D0F87421D0F870319A420ED26946CC
S3150FE12190FFF7D0FFD4F8780198B141F2070240F288
S3150FE121A00123904208BF184604B010BDA3785BB176
S3150FE121B0E27840F2022040F20323002A18BF1846C4
S3150FE121C0F2E740F20120EFE740F20220ECE70000F0
S3150FE121D070B586B006AB0D46002103F8111D0293CB
S3150FE121E01E4B11600446164628461C22CDE90333E1
S3150FE121F0059301F02AF99DF8072062B994F86E303C
S3150FE12200112B08D0D4F878312BB9D4F87411D4F84E
S3150FE12210703199421AD32378990744BF63683360C3
S3150FE122202378DB0709D504F1080304F1240153F8F8
S3150FE12230040B45F8040B8B42F9D162B92378002BD5
S3150FE1224040F2064018BF002006B070BD02A9204635
S3150FE12250FFF770FFCFE70020F6E700BFF120E10FB0
S3150FE1226070B40D4C0E461146626882420DD90130AB
S3150FE1227004EBC002F518526895420AD854F83000BB
S3150FE122801A46304470BCFFF7A2BA40F2014070BC67
S3150FE12290704740F20240FAE7CC35E10F074B5A6837
S3150FE122A0824207D9013003EBC00253F8300051687F
S3150FE122B0FFF7A6BA40F20140704700BFCC35E10FF8
S3150FE122C010B5044660B14FF480320023C0E9002314
S3150FE122D0044B1A785B680272C360FFF75BFA206101
S3150FE122E010BD00BFCC35E10F37B50C46054611469B
S3150FE122F0204601F017F848B969462846FFF7E0FE90
S3150FE1230020B9019BC4F86C51C4F8703103B030BDEC
S3150FE1231038B500F5807204460D46202300F1B80169
S3150FE12320283000F0B3FAD4F878312BB9D4F8742108
S3150FE12330D4F870319A4203D3A07800B1E07838BD72
S3150FE1234029462046FFF7F6FEEDE700000F4B00B5F5
S3150FE123501B689B688B42E5B003D3002065B05DF83F
S3150FE1236004FB4FF4BE7205A9FFF7BEFF0028F4D1B7
S3150FE1237002238DF81530CDE901000390044B049348
S3150FE1238001A905A8FFF7C4FFE8E700BF2808E10F99
S3150FE123902532E10F00B5E5B04FF4BE7205A9FFF79F
S3150FE123A0A3FF70B901238DF81530074B0190CDE9E5
S3150FE123B00230049001A905A8FFF7AAFF65B05DF801
S3150FE123C004FB0020FAE700BF0132E10F2DE9F041EE
S3150FE123D09AB0502204460D4606A8002101F035F8C1
S3150FE123E01422002101A801F030F801A8FFF768FFD8
S3150FE123F0049B012B0ED8002323604FF0FF320123FC
S3150FE12400AB4203D300201AB0BDE8F08144F8232094
S3150FE124100133F5E7AB426BD3FFF742FE059B0C2287
S3150FE1242006A90646DF68FFF7C3F90028EBD1DFF807
S3150FE12430CC80069B434516D1089A06A93046FFF78D
S3150FE12440B7F94FF0FF32089906A8FEF7DBFA2A4BE8
S3150FE12450984233D004EB85054FF0FF33A54213D0F5
S3150FE1246044F8043BFAE737440C2206A93846FFF74E
S3150FE124709FF90028C7D1069B43450BD004EB850591
S3150FE124804FF0FF33A54202D140F20550BBE744F8C6
S3150FE12490043BF7E706A9089A3846FFF789F9059B42
S3150FE124A03046D968FFF7ACF90028ACD1089A06A9EE
S3150FE124B03046FFF78CF90028BED0A4E7089BA3F1BD
S3150FE124C010029208AA4228BF2A460023934207D157
S3150FE124D04FF0FF32AB4295D244F823200133F9E7AF
S3150FE124E006A901EB8301C96844F823100133EDE72F
S3150FE124F040F2045087E700BFE320BBDE39528FE19C
S3150FE12500F0B59BB00D4644220021074609A800F01D
S3150FE125109CFF304A0123CDE90623002150231422E3
S3150FE1252001A8089300F091FF01A8FFF7C9FE049BEC
S3150FE12530AB424BD3012B08D83B680133012B40F259
S3150FE12540045098BF00201BB0F0BDFFF7A9FD059B16
S3150FE12550DC68102D0646044428BF10250023AB4244
S3150FE1256026D14FF0FF32102B2AD14C214FF0FF32FB
S3150FE1257006A8FEF747FA059BC0431990D96820468E
S3150FE12580FFF73EF90028DED1502206A92046FFF7D4
S3150FE125901EF90028D7D1059B3046D968FFF730F9E8
S3150FE125A00028D0D1502206A93046FFF710F9CAE725
S3150FE125B006AA02EB830257F82310D1600133CEE767
S3150FE125C006A901EB83010133CA60CCE740F204505F
S3150FE125D0B9E700BF39528FE170B596B014220021E9
S3150FE125E0064601A800F031FF01A8FFF769FE049C3A
S3150FE125F0012C1ED906AD21462846FFF7E7FE20B18D
S3150FE1260040F2055398420DD1002055F820305A1C5F
S3150FE126100AD116AB03EB8000214640F8406C284601
S3150FE12620FFF76EFF16B070BDB34205D0013084429D
S3150FE12630EBD140F20250F5E740F20350F2E770B505
S3150FE12640D1E90152AA4205D290F840302B449B1AA8
S3150FE12650402B10D9002012E00A6890F84040D65C72
S3150FE1266090F84120224402F03F02013301348654AF
S3150FE126708B6080F840408B689D42EDD8012070BD9C
S3150FE126802DE9F8431746D1E90125521B90F8405041
S3150FE126909DF820909DF824802A44934204460E46E5
S3150FE126A057D9FFF7CCFF00285DD1122384F84630C6
S3150FE126B041F20200BDE8F88394F84120A25C7A5515
S3150FE126C094F84120013202F03F0284F8412094F858
S3150FE126D04020013A84F84020013594F8402012B1A8
S3150FE126E0AB42E9D11D46D6E901128A4201D2AB428C
S3150FE126F031D8AB42D9D1D4F8882029463846FEF7EE
S3150FE1270081F9C4F88800B9F1000F04D02A46394699
S3150FE12710E06CFEF705FAB8F1000F08D094F84330F4
S3150FE127202BB12B463A463946A06CFEF7A9F994F838
S3150FE12730433043B1E36DA26D2B449342E36524BF6E
S3150FE12740002384F84330636D1D44656541F2030050
S3150FE12750B0E70025C1E731688A5C7A55B268013284
S3150FE12760B2600135BFE70020A4E700007FB5002383
S3150FE12770CDE90033082315460DEB03020446FFF7B7
S3150FE127807FFF41F203039842064626D194F8433080
S3150FE1279063B108220DEB0201E06CFEF7C1F90823E4
S3150FE127A00DEB03021146A06CFEF76AF9039A6A6014
S3150FE127B094F84320029B2B605AB9094A934208D0F9
S3150FE127C0084A934205D008220DEB0201E06CFEF7B1
S3150FE127D0A7F96B68236500236365304604B070BDC6
S3150FE127E0F70A0AF7FC0404FC2DE9F8430446586896
S3150FE127F00D4616461F46002843D08B0743D1FFF7F8
S3150FE12800C1FB216E00F1040C06EB0109CC451DD885
S3150FE1281000F11C02914219D28C45634638BF0B4633
S3150FE12820591AA3EB0C00914594BFC3EB0909C3EB0E
S3150FE12830020905EB010868304A464146204400F09B
S3150FE12840F9FD4A46FF21404600F0FFFDFFF7A0FBE9
S3150FE12850226E031D93420AD3B1180830814206D383
S3150FE128609B1AEA58C4F880204FF0FF32EA50D7E9B5
S3150FE1287000383246206E2946C047236E1E4426662F
S3150FE128800020BDE8F88341F20200FAE7F8B5044605
S3150FE128904FF0FF36154603F02003002280F846205D
S3150FE128A0A0F8402080F8432080F8452080F84420A6
S3150FE128B0C0E918220F4680F84230C0F88860182226
S3150FE128C0FF21683000F0C1FDC4F88060C4F8846070
S3150FE128D0C4E91275FFF753FB18B117B941F20B00B3
S3150FE128E0F8BDFFF74AFB30B1002DF7D0E06CFEF7EC
S3150FE128F00DF90020F4E7002DF8D12846F0E70000A6
S3150FE129002DE9F04F99B09B46CDE90523229E002391
S3150FE129100446894607939846079A5A4557D294F83B
S3150FE129204630122BF9D8DFE813F05B007000540044
S3150FE129309A00B6013B003200ED013B00CD013B00B1
S3150FE12940CD01B302510313001C03200348025103C7
S3150FE129500027636D0F2B41D80125102301970095B1
S3150FE1296008AA05A92046FFF78BFE41F20303984219
S3150FE129707AD1D4F848A0FFF79FFB8023CDE9000376
S3150FE1298009AA2B4602215046FEF758F8E1E7012541
S3150FE12990D4E914329A42C0F01D8184F84650BBE760
S3150FE129A00DF1200AD4E91452AA42079916D2069BD1
S3150FE129B0AD1A94F840205B1A032D134440F2A68119
S3150FE129C0032B00F2CA8105A92046FFF738FE002046
S3150FE129D04AE00025636D072B40F2C580012311E024
S3150FE129E003AA05A92046FFF7C1FE41F20303984268
S3150FE129F03AD1049B236500236365039AB44B9A424C
S3150FE12A002DD1022384F8463086E703AA05A920468D
S3150FE12A10FFF7ACFE41F20303984225D194F8442027
S3150FE12A20039B22B1AB4A934219D10C23EAE794F8FF
S3150FE12A304220D10750D594F84320002A40F0C982AD
S3150FE12A40A54A934242D017D8A44A934207D00ED84B
S3150FE12A509F4A934203D002F1B642934216D1122313
S3150FE12A6084F8463041F2010019B0BDE8F08F9C4A77
S3150FE12A709342F4D09B4AF0E79B4A93421CD00DD880
S3150FE12A809A4A934244D09A4A934217D0122384F832
S3150FE12A90463003A8FFF76DFAD8B1E3E7954A9342BB
S3150FE12AA0DDD0954A9342DAD08A4A9342EED1FFF7C7
S3150FE12AB064FA0028B9D0D2E70E23A3E70F2384F8EF
S3150FE12AC04630236DA3650023E36525E7122384F8DA
S3150FE12AD0463041F20800C7E7844A934214D000F228
S3150FE12AE07D827F4A934207D07E4A934206D07B4A44
S3150FE12AF093420FD1062385E7042383E7072381E773
S3150FE12B0009237FE70B237DE794F84330002BA6D10A
S3150FE12B10102377E703A8FFF72CFAD0B11123039817
S3150FE12B2084F84630C4F88C00FFF725FA94F8423062
S3150FE12B309A0680467FF5F0AE00283FF4EDAE436886
S3150FE12B40002B3FF4E9AE2046984700283FF4E4AE68
S3150FE12B5088E7122384F8463094F84330002BB8D037
S3150FE12B6041F2040080E7012300930195082308AAA7
S3150FE12B7005A92046FFF784FD41F2030398427FF44E
S3150FE12B8073AF089B03F07F43B3F1407F05D0122368
S3150FE12B9084F8463041F2090066E7099B0293DB07A9
S3150FE12BA00ED594F8423043F0010384F84230FFF733
S3150FE12BB0E4F900283FF40EAF029BDF0504D509E7E0
S3150FE12BC0FFF7DDF90028F2D0122384F8463041F2FF
S3150FE12BD00A0049E7CDE9005508AA05A92046FFF7FE
S3150FE12BE04FFD41F2030398427FF43EAF09F1080C22
S3150FE12BF008AF63460DF1380E3A4603CA72451860BF
S3150FE12C005960174603F10803F6D11068186099F871
S3150FE12C10003043F0010389F800306046FFF7C6F94B
S3150FE12C2000287FF4B5AE122384F8463041F20C004A
S3150FE12C301AE70123CDE9003308AA082305A920469F
S3150FE12C40FFF71EFD41F2030398427FF40DAF99F8AA
S3150FE12C5000302A4A2A4843F0020389F80030126805
S3150FE12C60089BC9F80430236D1168083BC9F8243075
S3150FE12C708142099B029303D1D2689A427FF4EFAE68
S3150FE12C80052384F8463094F8453043F0010384F880
S3150FE12C90453000236366636D072BCAD93CE60423EF
S3150FE12CA0CDE9005508AA05A92046FFF7E9FC41F24F
S3150FE12CB0030398427FF4D8AE226D089B0293042A50
S3150FE12CC001D923660125636D032BE8D90A2399E61A
S3150FE12CD0EB17A603FC0404FCF70909F7F40A0AF457
S3150FE12CE0F50909F5F60808F6FA0606FAF70A0AF7F4
S3150FE12CF0F90707F9FD0303FDFE0101FE2800E10FC8
S3150FE12D00AD1007B00023636608237BE69D423FF6CD
S3150FE12D105AAE9D4228BF1D46032D88BF25F00305F8
S3150FE12D200123CDE9003352462B4605A92046FFF78D
S3150FE12D30A7FC41F2030398427FF496AE94F846302E
S3150FE12D40082B13D1B7688FB13368606E2A465146A7
S3150FE12D50B847636E1D44656624E6402D28BF4025BE
S3150FE12D60D7E74FF0FF320AF805200135032DF8D9E1
S3150FE12D700A2B06D133462A4651462046FFF734FD44
S3150FE12D8010E6052B7FF40EAE99F8013098077FF523
S3150FE12D9009AEF368002B3FF405AE626E042A0AD83A
S3150FE12DA05319062B07D909AB9B1A1A68C4F8842065
S3150FE12DB04FF0FF321A60F768C6E794F8423099068A
S3150FE12DC007D5D4F88C00FFF7D6F8804600283FF4F4
S3150FE12DD049AE01273FE0002B58D0B8F1000F55D08F
S3150FE12DE0D8F81030002B51D020469847DDE906532D
S3150FE12DF0ED1A94F840302B4498423FF6E4ADD4E90E
S3150FE12E001452AD1A402D28BF40259D4228BF1D46BD
S3150FE12E102B46CDE9007708AA05A92046FFF730FC36
S3150FE12E2041F2030398427FF41FAE94F842309A06BB
S3150FE12E3011D5B8F1000F3FF415AED8F808A0BAF1E5
S3150FE12E40000F3FF40FAE33462A4608A92046D04776
S3150FE12E5000287FF409AED4E9142194F84230914267
S3150FE12E6003F02003B7D3002B3FF4B8ADB8F1000F51
S3150FE12E703FF4B4ADD8F80C30002B3FF4AFAD31468B
S3150FE12E802046984700283FF4A9ADEDE50120ADE7CF
S3150FE12E900023CDE9003308AA042305A92046FFF74D
S3150FE12EA0EFFB41F2030398427FF4DEADD4F88820BD
S3150FE12EB0564B9A4205D0122384F8463041F205006B
S3150FE12EC0D2E5FFF75AF810B9012389F8033099F8DB
S3150FE12ED00330002B3ED094F845309B0707D0F568B9
S3150FE12EE02DB10422336804F184011046A847236EFD
S3150FE12EF083B3736873B318AF4FF0FF3347F8583D99
S3150FE12F0004F1800804224146384600F084FA40B1C4
S3150FE12F10FFF73EF828B10422D6E9003541461044C1
S3150FE12F20A84704F1680504222946384600F073FAEA
S3150FE12F3080B17768FFF726F83368142204F16C0144
S3150FE12F400830B8477768FFF71DF80422336829463A
S3150FE12F501044B847012389F802300D2384F846302F
S3150FE12F6035E5012384F843304CE594F84450002DC0
S3150FE12F707FF434AD4023CDE9005508AA05A92046D3
S3150FE12F80FFF77EFB41F2030398427FF46DADE06CF0
S3150FE12F90FDF7C8FDE76CFFF787F88246FFF788F87C
S3150FE12FA05346009010AA08A93846FDF77BFD38B1C4
S3150FE12FB0122389F8035041F2060084F8463053E5AF
S3150FE12FC0012389F8033084F8443007E541F207001D
S3150FE12FD04AE50F4A93427FF482AD40E50D4A9342AB
S3150FE12FE03FF490AD0C4A93423FF48AAD0B4A9342BC
S3150FE12FF07FF490ADFEF7C1FF00287FF430AD94F872
S3150FE130004330002B3FF411AD29E500BFE320BBDED2
S3150FE13010F70A0AF7FD0303FDFE0101FEFC0404FCBA
S3150FE13020044B41F671321A649A6822F001029A60F2
S3150FE13030704700BF00000E40034B9A6822F0010271
S3150FE130409A6000221A64704700000E4007B50346E6
S3150FE130509B0753BF6FEA01414FF6FF7343EA014105
S3150FE130606FEA1141019120F00300FFF7D9FF042226
S3150FE130700DEB0201FEF78AFBFFF7DEFF03B05DF80A
S3150FE1308004FB08B5FFF7CCFFFEF738FBFFF7D4FFDC
S3150FE13090B0FA80F0400908BDF8B540EA02031446DC
S3150FE130A0DA0705460E4601D50020F8BD0CB9012019
S3150FE130B0FBE7830725D50988FFF7C8FF0028F3D17A
S3150FE130C0023C032C05F1020506F102060FD924F0A5
S3150FE130D00307FFF7A5FF3A4631462846FEF756FBAB
S3150FE130E0FFF7AAFF0028DFD13E443D44E41B002C45
S3150FE130F0DDD031882846FFF7A9FFB0FA80F0400905
S3150FE13100D3E7032CE3D8F4E7F0B50F4B85B06C4664
S3150FE13110024603F11007264618685968254603C586
S3150FE131200833BB422C46F7D104AB501E13F8011DF1
S3150FE1313010F8012F914204D1B342F7D1012005B026
S3150FE13140F0BD0020FBE700BF5037E10FC0F30A03E4
S3150FE131502DE9F04105460F4616460BB9FFF791FFEC
S3150FE1316005F5006424F4FF6424F0070405EB060873
S3150FE13170A04506D8324639462846BDE8F041FFF765
S3150FE131808BBF2046FFF77DFF04F50064F0E70000F3
S3150FE1319030B5446B9FB005462046FFF7B5FF18B132
S3150FE131A06369012B27D1A469144B1B681B69A342E1
S3150FE131B021D8A5421FD8B4F5002F1CD803A8FDF7D7
S3150FE131C0A5FC621B294603A8FDF7AAFC03A8FDF798
S3150FE131D0A9FCFEF769FF0546FEF76AFF2B4600904D
S3150FE131E004F12002214603A8FDF75CFCB0FA80F05A
S3150FE131F040091FB030BD0020FBE700BF2808E10FF3
S3150FE1320070B4074C246826698642034606D864697A
S3150FE1321013449C4202D370BCFFF798BF70BC704752
S3150FE132202808E10FF8B5114B1B6815461A68104BC4
S3150FE132309A4206460F4618D1FEF7AAFE841963197C
S3150FE13240B3F5002F11D84EB9FEF7A2FE094B1B6855
S3150FE132505A69824202D91869FFF713FF2A4639469E
S3150FE132602046BDE8F840FFF771BFF8BD2800E10F32
S3150FE13270AD1007B02808E10F38B5036803F16043D5
S3150FE13280B3F5803F044634D81C4B42681B681B6973
S3150FE1329093422ED8B2F5002F2BD8456B4033AB4274
S3150FE132A002D8B5F5002F05D9FDF7AAFB80F001008D
S3150FE132B0C0B238BDFDF7A4FB20B12046BDE83840CA
S3150FE132C0FFF766BF2846FFF71FFFA0B16B69002B1B
S3150FE132D0EFD0022BF1D1AB69C4F1040119444FF0E0
S3150FE132E0FF322046FDF78EFB054BC31A5842584174
S3150FE132F0DFE70020DDE70120DBE700BF2808E10F6C
S3150FE13300E320BBDE08B54FF0FF32FDF77BFB044B45
S3150FE13310984203D140F2092000F048F8002008BD99
S3150FE13320E320BBDEB1F5BE7F10B5044610D34FF4F3
S3150FE13330BE72002100F089F80023637004F58072F4
S3150FE1334004F1B80104F12800BDE81040FFF79EBA79
S3150FE1335040F2052010BD13B5044600910146283011
S3150FE13360FFF7CEFAC4F8780118B141F20703984294
S3150FE1337009D1A3784BB1E27840F2032040F2022360
S3150FE13380002A08BF184602B010BD40F20120FAE745
S3150FE133904FF000534FF20F0218805A8070474FF0EB
S3150FE133A000534CF23C325A80704700004FF0005305
S3150FE133B04FF20F025A800A4A1880136823F4E0632A
S3150FE133C043F480631360BFF34F8F0649064BCA6818
S3150FE133D002F4E0621343CB60BFF34F8F00BFFDE70B
S3150FE133E000500E4000ED00E00400FA054FF00053E7
S3150FE133F04FF20F015A888A4201D1188870473AB9BC
S3150FE134001B88012B40F2022018BF4FF40070704762
S3150FE134104FF40070704730B50024A24201D100206D
S3150FE1342007E0035D01340D1915F8015CAB42F4D0E9
S3150FE13430581B30BD10B5431E0A44914200D110BD51
S3150FE1344011F8014B03F8014FF7E7024403469342A4
S3150FE1345000D1704703F8011BF9E70000F8B500BF8B
S3150FE13460F8BC08BC9E467047F8B500BFF8BC08BC6F
S3150FE134709E4670474661756C7420202020202020DF
S3150FE1348020202000426F6F7420766572203120452F
S3150FE134906E74657220617070206E657700000000B2
S3150FE134A013B779FAC925DDB7ADF3CFE0F1B614B8A5
S3150FE134B001010000000000006C2F00004000000039
S3150FE134C007000801000000000000000000000000F6
S3150FE134D000000000000000000000000000000000F6
S3150FE134E042544C20656E74727900000007B0CD5ED0
S3150FE134F00100000007000801702F00000000000026
S3150FE1350000000800F0000100E908E10FED08E10F06
S3150FE135107932E10F2533E10F5733E10F1037E10F21
S3150FE135202000000000010000050C0000FFFFFFFF77
S3150FE13530FFFFFFFFFFFFFFFF00000000000000009D
S3150FE135400000000001000000FFFFFFFF512563FCB3
S3150FE13550C2CAB9F3849E17A7ADFAE6BCFFFFFFFF18
S3150FE13560FFFFFFFF00000000FFFFFFFF96C298D8A5
S3150FE135704539A1F4A033EB2D817D0377F240A463A6
S3150FE13580E5E6BCF847422CE1F2D1176BF551BF37AF
S3150FE135906840B6CBCE5E316B5733CE2B169E0F7C82
S3150FE135A04AEBE78E9B7F1AFEE242E34F0A000000E9
S3150FE135B001020300280000002800000000080000B7
S3150FE135C000000800DC35E10F0200000001000000F9
S3150FE135D0010000000018020000D8010045465233F1
S3150FE135E03200000000000F400000000000040F4011
S3150FE135F00100000067452301EFCDAB8998BADCFEE8
S3150FE1360010325476C3D2E1F0000000000000000052
S3150FE1361000000000C1059ED8367CD5073070DD1756
S3150FE13620F70E5939FFC00B316858151164F98FA799
S3150FE13630BEFA4FA46A09E667BB67AE853C6EF372C5
S3150FE13640A54FF53A510E527F9B05688C1F83D9AB77
S3150FE136505BE0CD19800000000000000000000000D3
S3150FE136600000000000000000000000000000000064
S3150FE136700000000000000000000000000000000054
S3150FE136800000000000000000000000000000000044
S3150FE1369000000000536C6F743A200056657269663C
S3150FE136A079206661696C00424C20757067207769F5
S3150FE136B07468206E6F2061707000424C20757067E0
S3150FE136C02000202D3E200042746C207570677261D8
S3150FE136D0646520636F6D6D6974206661696C004284
S3150FE136E0746C2075706772616465206661696C0040
S3150FE136F04E6F2061707020696E20736C6F7400419C
S3150FE1370070702075706772616465206661696C001F
S3150FE1371000010000C122E10FC120E10FF920E10F05
S3150FE137206122E10F9D22E10F0125E10FCD23E10F8B
S3150FE13730D925E10FE922E10F6F21E10FD121E10F48
S3150FE13740A117E10FB117E10FCF17E10F0118E10F44
S3150FE13750B814B6F1E0CFF3ADB7DD25C9FA79B713F2
S3110FE13760000000006508E10F4108E10FD1
S503035A9F
S70500000000FA
